{
	"contracts/ABIDecodeExample.sol": {
		"ABIDecodeExample": {
			"abi": [
				{
					"anonymous": false,
					"inputs": [
						{
							"indexed": false,
							"internalType": "uint256",
							"name": "a",
							"type": "uint256"
						},
						{
							"indexed": false,
							"internalType": "string",
							"name": "b",
							"type": "string"
						}
					],
					"name": "DataDecoded",
					"type": "event"
				},
				{
					"inputs": [
						{
							"internalType": "bytes",
							"name": "data",
							"type": "bytes"
						}
					],
					"name": "decodeData",
					"outputs": [],
					"stateMutability": "nonpayable",
					"type": "function"
				},
				{
					"inputs": [
						{
							"internalType": "bytes",
							"name": "data",
							"type": "bytes"
						}
					],
					"name": "decodeWithSelector",
					"outputs": [
						{
							"internalType": "bytes4",
							"name": "",
							"type": "bytes4"
						},
						{
							"internalType": "address",
							"name": "",
							"type": "address"
						},
						{
							"internalType": "uint256",
							"name": "",
							"type": "uint256"
						}
					],
					"stateMutability": "pure",
					"type": "function"
				},
				{
					"inputs": [
						{
							"internalType": "bytes",
							"name": "data",
							"type": "bytes"
						}
					],
					"name": "decodeWithSignature",
					"outputs": [
						{
							"internalType": "bytes4",
							"name": "",
							"type": "bytes4"
						},
						{
							"internalType": "address",
							"name": "",
							"type": "address"
						},
						{
							"internalType": "uint256",
							"name": "",
							"type": "uint256"
						}
					],
					"stateMutability": "pure",
					"type": "function"
				},
				{
					"inputs": [
						{
							"internalType": "uint256",
							"name": "a",
							"type": "uint256"
						},
						{
							"internalType": "string",
							"name": "b",
							"type": "string"
						}
					],
					"name": "encodeData",
					"outputs": [
						{
							"internalType": "bytes",
							"name": "",
							"type": "bytes"
						}
					],
					"stateMutability": "pure",
					"type": "function"
				},
				{
					"inputs": [
						{
							"internalType": "address",
							"name": "recipient",
							"type": "address"
						},
						{
							"internalType": "uint256",
							"name": "amount",
							"type": "uint256"
						}
					],
					"name": "encodeWithSelector",
					"outputs": [
						{
							"internalType": "bytes",
							"name": "",
							"type": "bytes"
						}
					],
					"stateMutability": "pure",
					"type": "function"
				},
				{
					"inputs": [
						{
							"internalType": "address",
							"name": "recipient",
							"type": "address"
						},
						{
							"internalType": "uint256",
							"name": "amount",
							"type": "uint256"
						}
					],
					"name": "encodeWithSignature",
					"outputs": [
						{
							"internalType": "bytes",
							"name": "",
							"type": "bytes"
						}
					],
					"stateMutability": "pure",
					"type": "function"
				}
			],
			"devdoc": {
				"kind": "dev",
				"methods": {},
				"version": 1
			},
			"evm": {
				"assembly": "    /* \"contracts/ABIDecodeExample.sol\":61:1632  contract ABIDecodeExample {... */\n  mstore(0x40, 0x80)\n  callvalue\n  dup1\n  iszero\n  tag_1\n  jumpi\n  0x00\n  dup1\n  revert\ntag_1:\n  pop\n  dataSize(sub_0)\n  dup1\n  dataOffset(sub_0)\n  0x00\n  codecopy\n  0x00\n  return\nstop\n\nsub_0: assembly {\n        /* \"contracts/ABIDecodeExample.sol\":61:1632  contract ABIDecodeExample {... */\n      mstore(0x40, 0x80)\n      callvalue\n      dup1\n      iszero\n      tag_1\n      jumpi\n      0x00\n      dup1\n      revert\n    tag_1:\n      pop\n      jumpi(tag_2, lt(calldatasize, 0x04))\n      shr(0xe0, calldataload(0x00))\n      dup1\n      0x42a6e672\n      eq\n      tag_3\n      jumpi\n      dup1\n      0x447a06f5\n      eq\n      tag_4\n      jumpi\n      dup1\n      0x4e3555c5\n      eq\n      tag_5\n      jumpi\n      dup1\n      0x5fc6ac0e\n      eq\n      tag_6\n      jumpi\n      dup1\n      0x7e3b06fb\n      eq\n      tag_7\n      jumpi\n      dup1\n      0x90769437\n      eq\n      tag_8\n      jumpi\n    tag_2:\n      0x00\n      dup1\n      revert\n        /* \"contracts/ABIDecodeExample.sol\":158:305  function encodeData(... */\n    tag_3:\n      tag_9\n      0x04\n      dup1\n      calldatasize\n      sub\n      dup2\n      add\n      swap1\n      tag_10\n      swap2\n      swap1\n      tag_11\n      jump\t// in\n    tag_10:\n      tag_12\n      jump\t// in\n    tag_9:\n      mload(0x40)\n      tag_13\n      swap2\n      swap1\n      tag_14\n      jump\t// in\n    tag_13:\n      mload(0x40)\n      dup1\n      swap2\n      sub\n      swap1\n      return\n        /* \"contracts/ABIDecodeExample.sol\":333:491  function decodeData(bytes memory data) public {... */\n    tag_4:\n      tag_15\n      0x04\n      dup1\n      calldatasize\n      sub\n      dup2\n      add\n      swap1\n      tag_16\n      swap2\n      swap1\n      tag_17\n      jump\t// in\n    tag_16:\n      tag_18\n      jump\t// in\n    tag_15:\n      stop\n        /* \"contracts/ABIDecodeExample.sol\":1448:1629  function decodeWithSignature(... */\n    tag_5:\n      tag_19\n      0x04\n      dup1\n      calldatasize\n      sub\n      dup2\n      add\n      swap1\n      tag_20\n      swap2\n      swap1\n      tag_17\n      jump\t// in\n    tag_20:\n      tag_21\n      jump\t// in\n    tag_19:\n      mload(0x40)\n      tag_22\n      swap4\n      swap3\n      swap2\n      swap1\n      tag_23\n      jump\t// in\n    tag_22:\n      mload(0x40)\n      dup1\n      swap2\n      sub\n      swap1\n      return\n        /* \"contracts/ABIDecodeExample.sol\":543:818  function encodeWithSelector(... */\n    tag_6:\n      tag_24\n      0x04\n      dup1\n      calldatasize\n      sub\n      dup2\n      add\n      swap1\n      tag_25\n      swap2\n      swap1\n      tag_26\n      jump\t// in\n    tag_25:\n      tag_27\n      jump\t// in\n    tag_24:\n      mload(0x40)\n      tag_28\n      swap2\n      swap1\n      tag_14\n      jump\t// in\n    tag_28:\n      mload(0x40)\n      dup1\n      swap2\n      sub\n      swap1\n      return\n        /* \"contracts/ABIDecodeExample.sol\":1099:1399  function encodeWithSignature(... */\n    tag_7:\n      tag_29\n      0x04\n      dup1\n      calldatasize\n      sub\n      dup2\n      add\n      swap1\n      tag_30\n      swap2\n      swap1\n      tag_26\n      jump\t// in\n    tag_30:\n      tag_31\n      jump\t// in\n    tag_29:\n      mload(0x40)\n      tag_32\n      swap2\n      swap1\n      tag_14\n      jump\t// in\n    tag_32:\n      mload(0x40)\n      dup1\n      swap2\n      sub\n      swap1\n      return\n        /* \"contracts/ABIDecodeExample.sol\":870:1050  function decodeWithSelector(... */\n    tag_8:\n      tag_33\n      0x04\n      dup1\n      calldatasize\n      sub\n      dup2\n      add\n      swap1\n      tag_34\n      swap2\n      swap1\n      tag_17\n      jump\t// in\n    tag_34:\n      tag_35\n      jump\t// in\n    tag_33:\n      mload(0x40)\n      tag_36\n      swap4\n      swap3\n      swap2\n      swap1\n      tag_23\n      jump\t// in\n    tag_36:\n      mload(0x40)\n      dup1\n      swap2\n      sub\n      swap1\n      return\n        /* \"contracts/ABIDecodeExample.sol\":158:305  function encodeData(... */\n    tag_12:\n        /* \"contracts/ABIDecodeExample.sol\":249:261  bytes memory */\n      0x60\n        /* \"contracts/ABIDecodeExample.sol\":292:293  a */\n      dup3\n        /* \"contracts/ABIDecodeExample.sol\":295:296  b */\n      dup3\n        /* \"contracts/ABIDecodeExample.sol\":281:297  abi.encode(a, b) */\n      add(0x20, mload(0x40))\n      tag_38\n      swap3\n      swap2\n      swap1\n      tag_39\n      jump\t// in\n    tag_38:\n      mload(0x40)\n      0x20\n      dup2\n      dup4\n      sub\n      sub\n      dup2\n      mstore\n      swap1\n      0x40\n      mstore\n        /* \"contracts/ABIDecodeExample.sol\":274:297  return abi.encode(a, b) */\n      swap1\n      pop\n        /* \"contracts/ABIDecodeExample.sol\":158:305  function encodeData(... */\n      swap3\n      swap2\n      pop\n      pop\n      jump\t// out\n        /* \"contracts/ABIDecodeExample.sol\":333:491  function decodeData(bytes memory data) public {... */\n    tag_18:\n        /* \"contracts/ABIDecodeExample.sol\":391:397  uint a */\n      0x00\n        /* \"contracts/ABIDecodeExample.sol\":399:414  string memory b */\n      dup1\n        /* \"contracts/ABIDecodeExample.sol\":429:433  data */\n      dup3\n        /* \"contracts/ABIDecodeExample.sol\":418:450  abi.decode(data, (uint, string)) */\n      dup1\n      0x20\n      add\n      swap1\n      mload\n      dup2\n      add\n      swap1\n      tag_41\n      swap2\n      swap1\n      tag_42\n      jump\t// in\n    tag_41:\n        /* \"contracts/ABIDecodeExample.sol\":390:450  (uint a, string memory b) = abi.decode(data, (uint, string)) */\n      swap2\n      pop\n      swap2\n      pop\n        /* \"contracts/ABIDecodeExample.sol\":466:483  DataDecoded(a, b) */\n      0x7204de88a2292acf0e5b9281c9158c692fca6aa0de2d0e1601eada4b48f95ddd\n        /* \"contracts/ABIDecodeExample.sol\":478:479  a */\n      dup3\n        /* \"contracts/ABIDecodeExample.sol\":481:482  b */\n      dup3\n        /* \"contracts/ABIDecodeExample.sol\":466:483  DataDecoded(a, b) */\n      mload(0x40)\n      tag_43\n      swap3\n      swap2\n      swap1\n      tag_39\n      jump\t// in\n    tag_43:\n      mload(0x40)\n      dup1\n      swap2\n      sub\n      swap1\n      log1\n        /* \"contracts/ABIDecodeExample.sol\":379:491  {... */\n      pop\n      pop\n        /* \"contracts/ABIDecodeExample.sol\":333:491  function decodeData(bytes memory data) public {... */\n      pop\n      jump\t// out\n        /* \"contracts/ABIDecodeExample.sol\":1448:1629  function decodeWithSignature(... */\n    tag_21:\n        /* \"contracts/ABIDecodeExample.sol\":1533:1539  bytes4 */\n      0x00\n        /* \"contracts/ABIDecodeExample.sol\":1541:1548  address */\n      dup1\n        /* \"contracts/ABIDecodeExample.sol\":1550:1557  uint256 */\n      0x00\n        /* \"contracts/ABIDecodeExample.sol\":1588:1592  data */\n      dup4\n        /* \"contracts/ABIDecodeExample.sol\":1577:1621  abi.decode(data, (bytes4, address, uint256)) */\n      dup1\n      0x20\n      add\n      swap1\n      mload\n      dup2\n      add\n      swap1\n      tag_45\n      swap2\n      swap1\n      tag_46\n      jump\t// in\n    tag_45:\n        /* \"contracts/ABIDecodeExample.sol\":1570:1621  return abi.decode(data, (bytes4, address, uint256)) */\n      swap3\n      pop\n      swap3\n      pop\n      swap3\n      pop\n        /* \"contracts/ABIDecodeExample.sol\":1448:1629  function decodeWithSignature(... */\n      swap2\n      swap4\n      swap1\n      swap3\n      pop\n      jump\t// out\n        /* \"contracts/ABIDecodeExample.sol\":543:818  function encodeWithSelector(... */\n    tag_27:\n        /* \"contracts/ABIDecodeExample.sol\":652:664  bytes memory */\n      0x60\n        /* \"contracts/ABIDecodeExample.sol\":677:692  bytes4 selector */\n      0x00\n        /* \"contracts/ABIDecodeExample.sol\":702:740  keccak256(\"transfer(address,uint256)\") */\n      0xa9059cbb2ab09eb219583f4a59a5d0623ade346d962bcd4e46b11da047c9049b\n        /* \"contracts/ABIDecodeExample.sol\":677:741  bytes4 selector = bytes4(keccak256(\"transfer(address,uint256)\")) */\n      swap1\n      pop\n        /* \"contracts/ABIDecodeExample.sol\":782:790  selector */\n      dup1\n        /* \"contracts/ABIDecodeExample.sol\":792:801  recipient */\n      dup5\n        /* \"contracts/ABIDecodeExample.sol\":803:809  amount */\n      dup5\n        /* \"contracts/ABIDecodeExample.sol\":759:810  abi.encodeWithSelector(selector, recipient, amount) */\n      add(0x24, mload(0x40))\n      tag_48\n      swap3\n      swap2\n      swap1\n      tag_49\n      jump\t// in\n    tag_48:\n      mload(0x40)\n      0x20\n      dup2\n      dup4\n      sub\n      sub\n      dup2\n      mstore\n      swap1\n      0x40\n      mstore\n      swap1\n      not(0xffffffffffffffffffffffffffffffffffffffffffffffffffffffff)\n      and\n      0x20\n      dup3\n      add\n      dup1\n      mload\n      0xffffffffffffffffffffffffffffffffffffffffffffffffffffffff\n      dup4\n      dup2\n      dup4\n      and\n      or\n      dup4\n      mstore\n      pop\n      pop\n      pop\n      pop\n        /* \"contracts/ABIDecodeExample.sol\":752:810  return abi.encodeWithSelector(selector, recipient, amount) */\n      swap2\n      pop\n      pop\n        /* \"contracts/ABIDecodeExample.sol\":543:818  function encodeWithSelector(... */\n      swap3\n      swap2\n      pop\n      pop\n      jump\t// out\n        /* \"contracts/ABIDecodeExample.sol\":1099:1399  function encodeWithSignature(... */\n    tag_31:\n        /* \"contracts/ABIDecodeExample.sol\":1209:1221  bytes memory */\n      0x60\n        /* \"contracts/ABIDecodeExample.sol\":1342:1351  recipient */\n      dup3\n        /* \"contracts/ABIDecodeExample.sol\":1370:1376  amount */\n      dup3\n        /* \"contracts/ABIDecodeExample.sol\":1254:1391  abi.encodeWithSignature(... */\n      add(0x24, mload(0x40))\n      tag_51\n      swap3\n      swap2\n      swap1\n      tag_49\n      jump\t// in\n    tag_51:\n      mload(0x40)\n      0x20\n      dup2\n      dup4\n      sub\n      sub\n      dup2\n      mstore\n      swap1\n      0x40\n      mstore\n      and(not(0xffffffffffffffffffffffffffffffffffffffffffffffffffffffff), 0xa9059cbb00000000000000000000000000000000000000000000000000000000)\n      0x20\n      dup3\n      add\n      dup1\n      mload\n      0xffffffffffffffffffffffffffffffffffffffffffffffffffffffff\n      dup4\n      dup2\n      dup4\n      and\n      or\n      dup4\n      mstore\n      pop\n      pop\n      pop\n      pop\n        /* \"contracts/ABIDecodeExample.sol\":1234:1391  return... */\n      swap1\n      pop\n        /* \"contracts/ABIDecodeExample.sol\":1099:1399  function encodeWithSignature(... */\n      swap3\n      swap2\n      pop\n      pop\n      jump\t// out\n        /* \"contracts/ABIDecodeExample.sol\":870:1050  function decodeWithSelector(... */\n    tag_35:\n        /* \"contracts/ABIDecodeExample.sol\":954:960  bytes4 */\n      0x00\n        /* \"contracts/ABIDecodeExample.sol\":962:969  address */\n      dup1\n        /* \"contracts/ABIDecodeExample.sol\":971:978  uint256 */\n      0x00\n        /* \"contracts/ABIDecodeExample.sol\":1009:1013  data */\n      dup4\n        /* \"contracts/ABIDecodeExample.sol\":998:1042  abi.decode(data, (bytes4, address, uint256)) */\n      dup1\n      0x20\n      add\n      swap1\n      mload\n      dup2\n      add\n      swap1\n      tag_53\n      swap2\n      swap1\n      tag_46\n      jump\t// in\n    tag_53:\n        /* \"contracts/ABIDecodeExample.sol\":991:1042  return abi.decode(data, (bytes4, address, uint256)) */\n      swap3\n      pop\n      swap3\n      pop\n      swap3\n      pop\n        /* \"contracts/ABIDecodeExample.sol\":870:1050  function decodeWithSelector(... */\n      swap2\n      swap4\n      swap1\n      swap3\n      pop\n      jump\t// out\n        /* \"#utility.yul\":7:82   */\n    tag_54:\n        /* \"#utility.yul\":40:46   */\n      0x00\n        /* \"#utility.yul\":73:75   */\n      0x40\n        /* \"#utility.yul\":67:76   */\n      mload\n        /* \"#utility.yul\":57:76   */\n      swap1\n      pop\n        /* \"#utility.yul\":7:82   */\n      swap1\n      jump\t// out\n        /* \"#utility.yul\":88:205   */\n    tag_55:\n        /* \"#utility.yul\":197:198   */\n      0x00\n        /* \"#utility.yul\":194:195   */\n      dup1\n        /* \"#utility.yul\":187:199   */\n      revert\n        /* \"#utility.yul\":211:328   */\n    tag_56:\n        /* \"#utility.yul\":320:321   */\n      0x00\n        /* \"#utility.yul\":317:318   */\n      dup1\n        /* \"#utility.yul\":310:322   */\n      revert\n        /* \"#utility.yul\":334:411   */\n    tag_57:\n        /* \"#utility.yul\":371:378   */\n      0x00\n        /* \"#utility.yul\":400:405   */\n      dup2\n        /* \"#utility.yul\":389:405   */\n      swap1\n      pop\n        /* \"#utility.yul\":334:411   */\n      swap2\n      swap1\n      pop\n      jump\t// out\n        /* \"#utility.yul\":417:539   */\n    tag_58:\n        /* \"#utility.yul\":490:514   */\n      tag_102\n        /* \"#utility.yul\":508:513   */\n      dup2\n        /* \"#utility.yul\":490:514   */\n      tag_57\n      jump\t// in\n    tag_102:\n        /* \"#utility.yul\":483:488   */\n      dup2\n        /* \"#utility.yul\":480:515   */\n      eq\n        /* \"#utility.yul\":470:533   */\n      tag_103\n      jumpi\n        /* \"#utility.yul\":529:530   */\n      0x00\n        /* \"#utility.yul\":526:527   */\n      dup1\n        /* \"#utility.yul\":519:531   */\n      revert\n        /* \"#utility.yul\":470:533   */\n    tag_103:\n        /* \"#utility.yul\":417:539   */\n      pop\n      jump\t// out\n        /* \"#utility.yul\":545:684   */\n    tag_59:\n        /* \"#utility.yul\":591:596   */\n      0x00\n        /* \"#utility.yul\":629:635   */\n      dup2\n        /* \"#utility.yul\":616:636   */\n      calldataload\n        /* \"#utility.yul\":607:636   */\n      swap1\n      pop\n        /* \"#utility.yul\":645:678   */\n      tag_105\n        /* \"#utility.yul\":672:677   */\n      dup2\n        /* \"#utility.yul\":645:678   */\n      tag_58\n      jump\t// in\n    tag_105:\n        /* \"#utility.yul\":545:684   */\n      swap3\n      swap2\n      pop\n      pop\n      jump\t// out\n        /* \"#utility.yul\":690:807   */\n    tag_60:\n        /* \"#utility.yul\":799:800   */\n      0x00\n        /* \"#utility.yul\":796:797   */\n      dup1\n        /* \"#utility.yul\":789:801   */\n      revert\n        /* \"#utility.yul\":813:930   */\n    tag_61:\n        /* \"#utility.yul\":922:923   */\n      0x00\n        /* \"#utility.yul\":919:920   */\n      dup1\n        /* \"#utility.yul\":912:924   */\n      revert\n        /* \"#utility.yul\":936:1038   */\n    tag_62:\n        /* \"#utility.yul\":977:983   */\n      0x00\n        /* \"#utility.yul\":1028:1030   */\n      0x1f\n        /* \"#utility.yul\":1024:1031   */\n      not\n        /* \"#utility.yul\":1019:1021   */\n      0x1f\n        /* \"#utility.yul\":1012:1017   */\n      dup4\n        /* \"#utility.yul\":1008:1022   */\n      add\n        /* \"#utility.yul\":1004:1032   */\n      and\n        /* \"#utility.yul\":994:1032   */\n      swap1\n      pop\n        /* \"#utility.yul\":936:1038   */\n      swap2\n      swap1\n      pop\n      jump\t// out\n        /* \"#utility.yul\":1044:1224   */\n    tag_63:\n        /* \"#utility.yul\":1092:1169   */\n      0x4e487b7100000000000000000000000000000000000000000000000000000000\n        /* \"#utility.yul\":1089:1090   */\n      0x00\n        /* \"#utility.yul\":1082:1170   */\n      mstore\n        /* \"#utility.yul\":1189:1193   */\n      0x41\n        /* \"#utility.yul\":1186:1187   */\n      0x04\n        /* \"#utility.yul\":1179:1194   */\n      mstore\n        /* \"#utility.yul\":1213:1217   */\n      0x24\n        /* \"#utility.yul\":1210:1211   */\n      0x00\n        /* \"#utility.yul\":1203:1218   */\n      revert\n        /* \"#utility.yul\":1230:1511   */\n    tag_64:\n        /* \"#utility.yul\":1313:1340   */\n      tag_111\n        /* \"#utility.yul\":1335:1339   */\n      dup3\n        /* \"#utility.yul\":1313:1340   */\n      tag_62\n      jump\t// in\n    tag_111:\n        /* \"#utility.yul\":1305:1311   */\n      dup2\n        /* \"#utility.yul\":1301:1341   */\n      add\n        /* \"#utility.yul\":1443:1449   */\n      dup2\n        /* \"#utility.yul\":1431:1441   */\n      dup2\n        /* \"#utility.yul\":1428:1450   */\n      lt\n        /* \"#utility.yul\":1407:1425   */\n      0xffffffffffffffff\n        /* \"#utility.yul\":1395:1405   */\n      dup3\n        /* \"#utility.yul\":1392:1426   */\n      gt\n        /* \"#utility.yul\":1389:1451   */\n      or\n        /* \"#utility.yul\":1386:1474   */\n      iszero\n      tag_112\n      jumpi\n        /* \"#utility.yul\":1454:1472   */\n      tag_113\n      tag_63\n      jump\t// in\n    tag_113:\n        /* \"#utility.yul\":1386:1474   */\n    tag_112:\n        /* \"#utility.yul\":1494:1504   */\n      dup1\n        /* \"#utility.yul\":1490:1492   */\n      0x40\n        /* \"#utility.yul\":1483:1505   */\n      mstore\n        /* \"#utility.yul\":1273:1511   */\n      pop\n        /* \"#utility.yul\":1230:1511   */\n      pop\n      pop\n      jump\t// out\n        /* \"#utility.yul\":1517:1646   */\n    tag_65:\n        /* \"#utility.yul\":1551:1557   */\n      0x00\n        /* \"#utility.yul\":1578:1598   */\n      tag_115\n      tag_54\n      jump\t// in\n    tag_115:\n        /* \"#utility.yul\":1568:1598   */\n      swap1\n      pop\n        /* \"#utility.yul\":1607:1640   */\n      tag_116\n        /* \"#utility.yul\":1635:1639   */\n      dup3\n        /* \"#utility.yul\":1627:1633   */\n      dup3\n        /* \"#utility.yul\":1607:1640   */\n      tag_64\n      jump\t// in\n    tag_116:\n        /* \"#utility.yul\":1517:1646   */\n      swap2\n      swap1\n      pop\n      jump\t// out\n        /* \"#utility.yul\":1652:1960   */\n    tag_66:\n        /* \"#utility.yul\":1714:1718   */\n      0x00\n        /* \"#utility.yul\":1804:1822   */\n      0xffffffffffffffff\n        /* \"#utility.yul\":1796:1802   */\n      dup3\n        /* \"#utility.yul\":1793:1823   */\n      gt\n        /* \"#utility.yul\":1790:1846   */\n      iszero\n      tag_118\n      jumpi\n        /* \"#utility.yul\":1826:1844   */\n      tag_119\n      tag_63\n      jump\t// in\n    tag_119:\n        /* \"#utility.yul\":1790:1846   */\n    tag_118:\n        /* \"#utility.yul\":1864:1893   */\n      tag_120\n        /* \"#utility.yul\":1886:1892   */\n      dup3\n        /* \"#utility.yul\":1864:1893   */\n      tag_62\n      jump\t// in\n    tag_120:\n        /* \"#utility.yul\":1856:1893   */\n      swap1\n      pop\n        /* \"#utility.yul\":1948:1952   */\n      0x20\n        /* \"#utility.yul\":1942:1946   */\n      dup2\n        /* \"#utility.yul\":1938:1953   */\n      add\n        /* \"#utility.yul\":1930:1953   */\n      swap1\n      pop\n        /* \"#utility.yul\":1652:1960   */\n      swap2\n      swap1\n      pop\n      jump\t// out\n        /* \"#utility.yul\":1966:2114   */\n    tag_67:\n        /* \"#utility.yul\":2064:2070   */\n      dup3\n        /* \"#utility.yul\":2059:2062   */\n      dup2\n        /* \"#utility.yul\":2054:2057   */\n      dup4\n        /* \"#utility.yul\":2041:2071   */\n      calldatacopy\n        /* \"#utility.yul\":2105:2106   */\n      0x00\n        /* \"#utility.yul\":2096:2102   */\n      dup4\n        /* \"#utility.yul\":2091:2094   */\n      dup4\n        /* \"#utility.yul\":2087:2103   */\n      add\n        /* \"#utility.yul\":2080:2107   */\n      mstore\n        /* \"#utility.yul\":1966:2114   */\n      pop\n      pop\n      pop\n      jump\t// out\n        /* \"#utility.yul\":2120:2545   */\n    tag_68:\n        /* \"#utility.yul\":2198:2203   */\n      0x00\n        /* \"#utility.yul\":2223:2289   */\n      tag_123\n        /* \"#utility.yul\":2239:2288   */\n      tag_124\n        /* \"#utility.yul\":2281:2287   */\n      dup5\n        /* \"#utility.yul\":2239:2288   */\n      tag_66\n      jump\t// in\n    tag_124:\n        /* \"#utility.yul\":2223:2289   */\n      tag_65\n      jump\t// in\n    tag_123:\n        /* \"#utility.yul\":2214:2289   */\n      swap1\n      pop\n        /* \"#utility.yul\":2312:2318   */\n      dup3\n        /* \"#utility.yul\":2305:2310   */\n      dup2\n        /* \"#utility.yul\":2298:2319   */\n      mstore\n        /* \"#utility.yul\":2350:2354   */\n      0x20\n        /* \"#utility.yul\":2343:2348   */\n      dup2\n        /* \"#utility.yul\":2339:2355   */\n      add\n        /* \"#utility.yul\":2388:2391   */\n      dup5\n        /* \"#utility.yul\":2379:2385   */\n      dup5\n        /* \"#utility.yul\":2374:2377   */\n      dup5\n        /* \"#utility.yul\":2370:2386   */\n      add\n        /* \"#utility.yul\":2367:2392   */\n      gt\n        /* \"#utility.yul\":2364:2476   */\n      iszero\n      tag_125\n      jumpi\n        /* \"#utility.yul\":2395:2474   */\n      tag_126\n      tag_61\n      jump\t// in\n    tag_126:\n        /* \"#utility.yul\":2364:2476   */\n    tag_125:\n        /* \"#utility.yul\":2485:2539   */\n      tag_127\n        /* \"#utility.yul\":2532:2538   */\n      dup5\n        /* \"#utility.yul\":2527:2530   */\n      dup3\n        /* \"#utility.yul\":2522:2525   */\n      dup6\n        /* \"#utility.yul\":2485:2539   */\n      tag_67\n      jump\t// in\n    tag_127:\n        /* \"#utility.yul\":2204:2545   */\n      pop\n        /* \"#utility.yul\":2120:2545   */\n      swap4\n      swap3\n      pop\n      pop\n      pop\n      jump\t// out\n        /* \"#utility.yul\":2565:2905   */\n    tag_69:\n        /* \"#utility.yul\":2621:2626   */\n      0x00\n        /* \"#utility.yul\":2670:2673   */\n      dup3\n        /* \"#utility.yul\":2663:2667   */\n      0x1f\n        /* \"#utility.yul\":2655:2661   */\n      dup4\n        /* \"#utility.yul\":2651:2668   */\n      add\n        /* \"#utility.yul\":2647:2674   */\n      slt\n        /* \"#utility.yul\":2637:2759   */\n      tag_129\n      jumpi\n        /* \"#utility.yul\":2678:2757   */\n      tag_130\n      tag_60\n      jump\t// in\n    tag_130:\n        /* \"#utility.yul\":2637:2759   */\n    tag_129:\n        /* \"#utility.yul\":2795:2801   */\n      dup2\n        /* \"#utility.yul\":2782:2802   */\n      calldataload\n        /* \"#utility.yul\":2820:2899   */\n      tag_131\n        /* \"#utility.yul\":2895:2898   */\n      dup5\n        /* \"#utility.yul\":2887:2893   */\n      dup3\n        /* \"#utility.yul\":2880:2884   */\n      0x20\n        /* \"#utility.yul\":2872:2878   */\n      dup7\n        /* \"#utility.yul\":2868:2885   */\n      add\n        /* \"#utility.yul\":2820:2899   */\n      tag_68\n      jump\t// in\n    tag_131:\n        /* \"#utility.yul\":2811:2899   */\n      swap2\n      pop\n        /* \"#utility.yul\":2627:2905   */\n      pop\n        /* \"#utility.yul\":2565:2905   */\n      swap3\n      swap2\n      pop\n      pop\n      jump\t// out\n        /* \"#utility.yul\":2911:3565   */\n    tag_11:\n        /* \"#utility.yul\":2989:2995   */\n      0x00\n        /* \"#utility.yul\":2997:3003   */\n      dup1\n        /* \"#utility.yul\":3046:3048   */\n      0x40\n        /* \"#utility.yul\":3034:3043   */\n      dup4\n        /* \"#utility.yul\":3025:3032   */\n      dup6\n        /* \"#utility.yul\":3021:3044   */\n      sub\n        /* \"#utility.yul\":3017:3049   */\n      slt\n        /* \"#utility.yul\":3014:3133   */\n      iszero\n      tag_133\n      jumpi\n        /* \"#utility.yul\":3052:3131   */\n      tag_134\n      tag_55\n      jump\t// in\n    tag_134:\n        /* \"#utility.yul\":3014:3133   */\n    tag_133:\n        /* \"#utility.yul\":3172:3173   */\n      0x00\n        /* \"#utility.yul\":3197:3250   */\n      tag_135\n        /* \"#utility.yul\":3242:3249   */\n      dup6\n        /* \"#utility.yul\":3233:3239   */\n      dup3\n        /* \"#utility.yul\":3222:3231   */\n      dup7\n        /* \"#utility.yul\":3218:3240   */\n      add\n        /* \"#utility.yul\":3197:3250   */\n      tag_59\n      jump\t// in\n    tag_135:\n        /* \"#utility.yul\":3187:3250   */\n      swap3\n      pop\n        /* \"#utility.yul\":3143:3260   */\n      pop\n        /* \"#utility.yul\":3327:3329   */\n      0x20\n        /* \"#utility.yul\":3316:3325   */\n      dup4\n        /* \"#utility.yul\":3312:3330   */\n      add\n        /* \"#utility.yul\":3299:3331   */\n      calldataload\n        /* \"#utility.yul\":3358:3376   */\n      0xffffffffffffffff\n        /* \"#utility.yul\":3350:3356   */\n      dup2\n        /* \"#utility.yul\":3347:3377   */\n      gt\n        /* \"#utility.yul\":3344:3461   */\n      iszero\n      tag_136\n      jumpi\n        /* \"#utility.yul\":3380:3459   */\n      tag_137\n      tag_56\n      jump\t// in\n    tag_137:\n        /* \"#utility.yul\":3344:3461   */\n    tag_136:\n        /* \"#utility.yul\":3485:3548   */\n      tag_138\n        /* \"#utility.yul\":3540:3547   */\n      dup6\n        /* \"#utility.yul\":3531:3537   */\n      dup3\n        /* \"#utility.yul\":3520:3529   */\n      dup7\n        /* \"#utility.yul\":3516:3538   */\n      add\n        /* \"#utility.yul\":3485:3548   */\n      tag_69\n      jump\t// in\n    tag_138:\n        /* \"#utility.yul\":3475:3548   */\n      swap2\n      pop\n        /* \"#utility.yul\":3270:3558   */\n      pop\n        /* \"#utility.yul\":2911:3565   */\n      swap3\n      pop\n      swap3\n      swap1\n      pop\n      jump\t// out\n        /* \"#utility.yul\":3571:3669   */\n    tag_70:\n        /* \"#utility.yul\":3622:3628   */\n      0x00\n        /* \"#utility.yul\":3656:3661   */\n      dup2\n        /* \"#utility.yul\":3650:3662   */\n      mload\n        /* \"#utility.yul\":3640:3662   */\n      swap1\n      pop\n        /* \"#utility.yul\":3571:3669   */\n      swap2\n      swap1\n      pop\n      jump\t// out\n        /* \"#utility.yul\":3675:3843   */\n    tag_71:\n        /* \"#utility.yul\":3758:3769   */\n      0x00\n        /* \"#utility.yul\":3792:3798   */\n      dup3\n        /* \"#utility.yul\":3787:3790   */\n      dup3\n        /* \"#utility.yul\":3780:3799   */\n      mstore\n        /* \"#utility.yul\":3832:3836   */\n      0x20\n        /* \"#utility.yul\":3827:3830   */\n      dup3\n        /* \"#utility.yul\":3823:3837   */\n      add\n        /* \"#utility.yul\":3808:3837   */\n      swap1\n      pop\n        /* \"#utility.yul\":3675:3843   */\n      swap3\n      swap2\n      pop\n      pop\n      jump\t// out\n        /* \"#utility.yul\":3849:3988   */\n    tag_72:\n        /* \"#utility.yul\":3938:3944   */\n      dup3\n        /* \"#utility.yul\":3933:3936   */\n      dup2\n        /* \"#utility.yul\":3928:3931   */\n      dup4\n        /* \"#utility.yul\":3922:3945   */\n      mcopy\n        /* \"#utility.yul\":3979:3980   */\n      0x00\n        /* \"#utility.yul\":3970:3976   */\n      dup4\n        /* \"#utility.yul\":3965:3968   */\n      dup4\n        /* \"#utility.yul\":3961:3977   */\n      add\n        /* \"#utility.yul\":3954:3981   */\n      mstore\n        /* \"#utility.yul\":3849:3988   */\n      pop\n      pop\n      pop\n      jump\t// out\n        /* \"#utility.yul\":3994:4367   */\n    tag_73:\n        /* \"#utility.yul\":4080:4083   */\n      0x00\n        /* \"#utility.yul\":4108:4146   */\n      tag_143\n        /* \"#utility.yul\":4140:4145   */\n      dup3\n        /* \"#utility.yul\":4108:4146   */\n      tag_70\n      jump\t// in\n    tag_143:\n        /* \"#utility.yul\":4162:4232   */\n      tag_144\n        /* \"#utility.yul\":4225:4231   */\n      dup2\n        /* \"#utility.yul\":4220:4223   */\n      dup6\n        /* \"#utility.yul\":4162:4232   */\n      tag_71\n      jump\t// in\n    tag_144:\n        /* \"#utility.yul\":4155:4232   */\n      swap4\n      pop\n        /* \"#utility.yul\":4241:4306   */\n      tag_145\n        /* \"#utility.yul\":4299:4305   */\n      dup2\n        /* \"#utility.yul\":4294:4297   */\n      dup6\n        /* \"#utility.yul\":4287:4291   */\n      0x20\n        /* \"#utility.yul\":4280:4285   */\n      dup7\n        /* \"#utility.yul\":4276:4292   */\n      add\n        /* \"#utility.yul\":4241:4306   */\n      tag_72\n      jump\t// in\n    tag_145:\n        /* \"#utility.yul\":4331:4360   */\n      tag_146\n        /* \"#utility.yul\":4353:4359   */\n      dup2\n        /* \"#utility.yul\":4331:4360   */\n      tag_62\n      jump\t// in\n    tag_146:\n        /* \"#utility.yul\":4326:4329   */\n      dup5\n        /* \"#utility.yul\":4322:4361   */\n      add\n        /* \"#utility.yul\":4315:4361   */\n      swap2\n      pop\n        /* \"#utility.yul\":4084:4367   */\n      pop\n        /* \"#utility.yul\":3994:4367   */\n      swap3\n      swap2\n      pop\n      pop\n      jump\t// out\n        /* \"#utility.yul\":4373:4682   */\n    tag_14:\n        /* \"#utility.yul\":4484:4488   */\n      0x00\n        /* \"#utility.yul\":4522:4524   */\n      0x20\n        /* \"#utility.yul\":4511:4520   */\n      dup3\n        /* \"#utility.yul\":4507:4525   */\n      add\n        /* \"#utility.yul\":4499:4525   */\n      swap1\n      pop\n        /* \"#utility.yul\":4571:4580   */\n      dup2\n        /* \"#utility.yul\":4565:4569   */\n      dup2\n        /* \"#utility.yul\":4561:4581   */\n      sub\n        /* \"#utility.yul\":4557:4558   */\n      0x00\n        /* \"#utility.yul\":4546:4555   */\n      dup4\n        /* \"#utility.yul\":4542:4559   */\n      add\n        /* \"#utility.yul\":4535:4582   */\n      mstore\n        /* \"#utility.yul\":4599:4675   */\n      tag_148\n        /* \"#utility.yul\":4670:4674   */\n      dup2\n        /* \"#utility.yul\":4661:4667   */\n      dup5\n        /* \"#utility.yul\":4599:4675   */\n      tag_73\n      jump\t// in\n    tag_148:\n        /* \"#utility.yul\":4591:4675   */\n      swap1\n      pop\n        /* \"#utility.yul\":4373:4682   */\n      swap3\n      swap2\n      pop\n      pop\n      jump\t// out\n        /* \"#utility.yul\":4688:4995   */\n    tag_74:\n        /* \"#utility.yul\":4749:4753   */\n      0x00\n        /* \"#utility.yul\":4839:4857   */\n      0xffffffffffffffff\n        /* \"#utility.yul\":4831:4837   */\n      dup3\n        /* \"#utility.yul\":4828:4858   */\n      gt\n        /* \"#utility.yul\":4825:4881   */\n      iszero\n      tag_150\n      jumpi\n        /* \"#utility.yul\":4861:4879   */\n      tag_151\n      tag_63\n      jump\t// in\n    tag_151:\n        /* \"#utility.yul\":4825:4881   */\n    tag_150:\n        /* \"#utility.yul\":4899:4928   */\n      tag_152\n        /* \"#utility.yul\":4921:4927   */\n      dup3\n        /* \"#utility.yul\":4899:4928   */\n      tag_62\n      jump\t// in\n    tag_152:\n        /* \"#utility.yul\":4891:4928   */\n      swap1\n      pop\n        /* \"#utility.yul\":4983:4987   */\n      0x20\n        /* \"#utility.yul\":4977:4981   */\n      dup2\n        /* \"#utility.yul\":4973:4988   */\n      add\n        /* \"#utility.yul\":4965:4988   */\n      swap1\n      pop\n        /* \"#utility.yul\":4688:4995   */\n      swap2\n      swap1\n      pop\n      jump\t// out\n        /* \"#utility.yul\":5001:5424   */\n    tag_75:\n        /* \"#utility.yul\":5078:5083   */\n      0x00\n        /* \"#utility.yul\":5103:5168   */\n      tag_154\n        /* \"#utility.yul\":5119:5167   */\n      tag_155\n        /* \"#utility.yul\":5160:5166   */\n      dup5\n        /* \"#utility.yul\":5119:5167   */\n      tag_74\n      jump\t// in\n    tag_155:\n        /* \"#utility.yul\":5103:5168   */\n      tag_65\n      jump\t// in\n    tag_154:\n        /* \"#utility.yul\":5094:5168   */\n      swap1\n      pop\n        /* \"#utility.yul\":5191:5197   */\n      dup3\n        /* \"#utility.yul\":5184:5189   */\n      dup2\n        /* \"#utility.yul\":5177:5198   */\n      mstore\n        /* \"#utility.yul\":5229:5233   */\n      0x20\n        /* \"#utility.yul\":5222:5227   */\n      dup2\n        /* \"#utility.yul\":5218:5234   */\n      add\n        /* \"#utility.yul\":5267:5270   */\n      dup5\n        /* \"#utility.yul\":5258:5264   */\n      dup5\n        /* \"#utility.yul\":5253:5256   */\n      dup5\n        /* \"#utility.yul\":5249:5265   */\n      add\n        /* \"#utility.yul\":5246:5271   */\n      gt\n        /* \"#utility.yul\":5243:5355   */\n      iszero\n      tag_156\n      jumpi\n        /* \"#utility.yul\":5274:5353   */\n      tag_157\n      tag_61\n      jump\t// in\n    tag_157:\n        /* \"#utility.yul\":5243:5355   */\n    tag_156:\n        /* \"#utility.yul\":5364:5418   */\n      tag_158\n        /* \"#utility.yul\":5411:5417   */\n      dup5\n        /* \"#utility.yul\":5406:5409   */\n      dup3\n        /* \"#utility.yul\":5401:5404   */\n      dup6\n        /* \"#utility.yul\":5364:5418   */\n      tag_67\n      jump\t// in\n    tag_158:\n        /* \"#utility.yul\":5084:5424   */\n      pop\n        /* \"#utility.yul\":5001:5424   */\n      swap4\n      swap3\n      pop\n      pop\n      pop\n      jump\t// out\n        /* \"#utility.yul\":5443:5781   */\n    tag_76:\n        /* \"#utility.yul\":5498:5503   */\n      0x00\n        /* \"#utility.yul\":5547:5550   */\n      dup3\n        /* \"#utility.yul\":5540:5544   */\n      0x1f\n        /* \"#utility.yul\":5532:5538   */\n      dup4\n        /* \"#utility.yul\":5528:5545   */\n      add\n        /* \"#utility.yul\":5524:5551   */\n      slt\n        /* \"#utility.yul\":5514:5636   */\n      tag_160\n      jumpi\n        /* \"#utility.yul\":5555:5634   */\n      tag_161\n      tag_60\n      jump\t// in\n    tag_161:\n        /* \"#utility.yul\":5514:5636   */\n    tag_160:\n        /* \"#utility.yul\":5672:5678   */\n      dup2\n        /* \"#utility.yul\":5659:5679   */\n      calldataload\n        /* \"#utility.yul\":5697:5775   */\n      tag_162\n        /* \"#utility.yul\":5771:5774   */\n      dup5\n        /* \"#utility.yul\":5763:5769   */\n      dup3\n        /* \"#utility.yul\":5756:5760   */\n      0x20\n        /* \"#utility.yul\":5748:5754   */\n      dup7\n        /* \"#utility.yul\":5744:5761   */\n      add\n        /* \"#utility.yul\":5697:5775   */\n      tag_75\n      jump\t// in\n    tag_162:\n        /* \"#utility.yul\":5688:5775   */\n      swap2\n      pop\n        /* \"#utility.yul\":5504:5781   */\n      pop\n        /* \"#utility.yul\":5443:5781   */\n      swap3\n      swap2\n      pop\n      pop\n      jump\t// out\n        /* \"#utility.yul\":5787:6294   */\n    tag_17:\n        /* \"#utility.yul\":5855:5861   */\n      0x00\n        /* \"#utility.yul\":5904:5906   */\n      0x20\n        /* \"#utility.yul\":5892:5901   */\n      dup3\n        /* \"#utility.yul\":5883:5890   */\n      dup5\n        /* \"#utility.yul\":5879:5902   */\n      sub\n        /* \"#utility.yul\":5875:5907   */\n      slt\n        /* \"#utility.yul\":5872:5991   */\n      iszero\n      tag_164\n      jumpi\n        /* \"#utility.yul\":5910:5989   */\n      tag_165\n      tag_55\n      jump\t// in\n    tag_165:\n        /* \"#utility.yul\":5872:5991   */\n    tag_164:\n        /* \"#utility.yul\":6058:6059   */\n      0x00\n        /* \"#utility.yul\":6047:6056   */\n      dup3\n        /* \"#utility.yul\":6043:6060   */\n      add\n        /* \"#utility.yul\":6030:6061   */\n      calldataload\n        /* \"#utility.yul\":6088:6106   */\n      0xffffffffffffffff\n        /* \"#utility.yul\":6080:6086   */\n      dup2\n        /* \"#utility.yul\":6077:6107   */\n      gt\n        /* \"#utility.yul\":6074:6191   */\n      iszero\n      tag_166\n      jumpi\n        /* \"#utility.yul\":6110:6189   */\n      tag_167\n      tag_56\n      jump\t// in\n    tag_167:\n        /* \"#utility.yul\":6074:6191   */\n    tag_166:\n        /* \"#utility.yul\":6215:6277   */\n      tag_168\n        /* \"#utility.yul\":6269:6276   */\n      dup5\n        /* \"#utility.yul\":6260:6266   */\n      dup3\n        /* \"#utility.yul\":6249:6258   */\n      dup6\n        /* \"#utility.yul\":6245:6267   */\n      add\n        /* \"#utility.yul\":6215:6277   */\n      tag_76\n      jump\t// in\n    tag_168:\n        /* \"#utility.yul\":6205:6277   */\n      swap2\n      pop\n        /* \"#utility.yul\":6001:6287   */\n      pop\n        /* \"#utility.yul\":5787:6294   */\n      swap3\n      swap2\n      pop\n      pop\n      jump\t// out\n        /* \"#utility.yul\":6300:6449   */\n    tag_77:\n        /* \"#utility.yul\":6336:6343   */\n      0x00\n        /* \"#utility.yul\":6376:6442   */\n      0xffffffff00000000000000000000000000000000000000000000000000000000\n        /* \"#utility.yul\":6369:6374   */\n      dup3\n        /* \"#utility.yul\":6365:6443   */\n      and\n        /* \"#utility.yul\":6354:6443   */\n      swap1\n      pop\n        /* \"#utility.yul\":6300:6449   */\n      swap2\n      swap1\n      pop\n      jump\t// out\n        /* \"#utility.yul\":6455:6570   */\n    tag_78:\n        /* \"#utility.yul\":6540:6563   */\n      tag_171\n        /* \"#utility.yul\":6557:6562   */\n      dup2\n        /* \"#utility.yul\":6540:6563   */\n      tag_77\n      jump\t// in\n    tag_171:\n        /* \"#utility.yul\":6535:6538   */\n      dup3\n        /* \"#utility.yul\":6528:6564   */\n      mstore\n        /* \"#utility.yul\":6455:6570   */\n      pop\n      pop\n      jump\t// out\n        /* \"#utility.yul\":6576:6702   */\n    tag_79:\n        /* \"#utility.yul\":6613:6620   */\n      0x00\n        /* \"#utility.yul\":6653:6695   */\n      0xffffffffffffffffffffffffffffffffffffffff\n        /* \"#utility.yul\":6646:6651   */\n      dup3\n        /* \"#utility.yul\":6642:6696   */\n      and\n        /* \"#utility.yul\":6631:6696   */\n      swap1\n      pop\n        /* \"#utility.yul\":6576:6702   */\n      swap2\n      swap1\n      pop\n      jump\t// out\n        /* \"#utility.yul\":6708:6804   */\n    tag_80:\n        /* \"#utility.yul\":6745:6752   */\n      0x00\n        /* \"#utility.yul\":6774:6798   */\n      tag_174\n        /* \"#utility.yul\":6792:6797   */\n      dup3\n        /* \"#utility.yul\":6774:6798   */\n      tag_79\n      jump\t// in\n    tag_174:\n        /* \"#utility.yul\":6763:6798   */\n      swap1\n      pop\n        /* \"#utility.yul\":6708:6804   */\n      swap2\n      swap1\n      pop\n      jump\t// out\n        /* \"#utility.yul\":6810:6928   */\n    tag_81:\n        /* \"#utility.yul\":6897:6921   */\n      tag_176\n        /* \"#utility.yul\":6915:6920   */\n      dup2\n        /* \"#utility.yul\":6897:6921   */\n      tag_80\n      jump\t// in\n    tag_176:\n        /* \"#utility.yul\":6892:6895   */\n      dup3\n        /* \"#utility.yul\":6885:6922   */\n      mstore\n        /* \"#utility.yul\":6810:6928   */\n      pop\n      pop\n      jump\t// out\n        /* \"#utility.yul\":6934:7052   */\n    tag_82:\n        /* \"#utility.yul\":7021:7045   */\n      tag_178\n        /* \"#utility.yul\":7039:7044   */\n      dup2\n        /* \"#utility.yul\":7021:7045   */\n      tag_57\n      jump\t// in\n    tag_178:\n        /* \"#utility.yul\":7016:7019   */\n      dup3\n        /* \"#utility.yul\":7009:7046   */\n      mstore\n        /* \"#utility.yul\":6934:7052   */\n      pop\n      pop\n      jump\t// out\n        /* \"#utility.yul\":7058:7496   */\n    tag_23:\n        /* \"#utility.yul\":7205:7209   */\n      0x00\n        /* \"#utility.yul\":7243:7245   */\n      0x60\n        /* \"#utility.yul\":7232:7241   */\n      dup3\n        /* \"#utility.yul\":7228:7246   */\n      add\n        /* \"#utility.yul\":7220:7246   */\n      swap1\n      pop\n        /* \"#utility.yul\":7256:7325   */\n      tag_180\n        /* \"#utility.yul\":7322:7323   */\n      0x00\n        /* \"#utility.yul\":7311:7320   */\n      dup4\n        /* \"#utility.yul\":7307:7324   */\n      add\n        /* \"#utility.yul\":7298:7304   */\n      dup7\n        /* \"#utility.yul\":7256:7325   */\n      tag_78\n      jump\t// in\n    tag_180:\n        /* \"#utility.yul\":7335:7407   */\n      tag_181\n        /* \"#utility.yul\":7403:7405   */\n      0x20\n        /* \"#utility.yul\":7392:7401   */\n      dup4\n        /* \"#utility.yul\":7388:7406   */\n      add\n        /* \"#utility.yul\":7379:7385   */\n      dup6\n        /* \"#utility.yul\":7335:7407   */\n      tag_81\n      jump\t// in\n    tag_181:\n        /* \"#utility.yul\":7417:7489   */\n      tag_182\n        /* \"#utility.yul\":7485:7487   */\n      0x40\n        /* \"#utility.yul\":7474:7483   */\n      dup4\n        /* \"#utility.yul\":7470:7488   */\n      add\n        /* \"#utility.yul\":7461:7467   */\n      dup5\n        /* \"#utility.yul\":7417:7489   */\n      tag_82\n      jump\t// in\n    tag_182:\n        /* \"#utility.yul\":7058:7496   */\n      swap5\n      swap4\n      pop\n      pop\n      pop\n      pop\n      jump\t// out\n        /* \"#utility.yul\":7502:7624   */\n    tag_83:\n        /* \"#utility.yul\":7575:7599   */\n      tag_184\n        /* \"#utility.yul\":7593:7598   */\n      dup2\n        /* \"#utility.yul\":7575:7599   */\n      tag_80\n      jump\t// in\n    tag_184:\n        /* \"#utility.yul\":7568:7573   */\n      dup2\n        /* \"#utility.yul\":7565:7600   */\n      eq\n        /* \"#utility.yul\":7555:7618   */\n      tag_185\n      jumpi\n        /* \"#utility.yul\":7614:7615   */\n      0x00\n        /* \"#utility.yul\":7611:7612   */\n      dup1\n        /* \"#utility.yul\":7604:7616   */\n      revert\n        /* \"#utility.yul\":7555:7618   */\n    tag_185:\n        /* \"#utility.yul\":7502:7624   */\n      pop\n      jump\t// out\n        /* \"#utility.yul\":7630:7769   */\n    tag_84:\n        /* \"#utility.yul\":7676:7681   */\n      0x00\n        /* \"#utility.yul\":7714:7720   */\n      dup2\n        /* \"#utility.yul\":7701:7721   */\n      calldataload\n        /* \"#utility.yul\":7692:7721   */\n      swap1\n      pop\n        /* \"#utility.yul\":7730:7763   */\n      tag_187\n        /* \"#utility.yul\":7757:7762   */\n      dup2\n        /* \"#utility.yul\":7730:7763   */\n      tag_83\n      jump\t// in\n    tag_187:\n        /* \"#utility.yul\":7630:7769   */\n      swap3\n      swap2\n      pop\n      pop\n      jump\t// out\n        /* \"#utility.yul\":7775:8249   */\n    tag_26:\n        /* \"#utility.yul\":7843:7849   */\n      0x00\n        /* \"#utility.yul\":7851:7857   */\n      dup1\n        /* \"#utility.yul\":7900:7902   */\n      0x40\n        /* \"#utility.yul\":7888:7897   */\n      dup4\n        /* \"#utility.yul\":7879:7886   */\n      dup6\n        /* \"#utility.yul\":7875:7898   */\n      sub\n        /* \"#utility.yul\":7871:7903   */\n      slt\n        /* \"#utility.yul\":7868:7987   */\n      iszero\n      tag_189\n      jumpi\n        /* \"#utility.yul\":7906:7985   */\n      tag_190\n      tag_55\n      jump\t// in\n    tag_190:\n        /* \"#utility.yul\":7868:7987   */\n    tag_189:\n        /* \"#utility.yul\":8026:8027   */\n      0x00\n        /* \"#utility.yul\":8051:8104   */\n      tag_191\n        /* \"#utility.yul\":8096:8103   */\n      dup6\n        /* \"#utility.yul\":8087:8093   */\n      dup3\n        /* \"#utility.yul\":8076:8085   */\n      dup7\n        /* \"#utility.yul\":8072:8094   */\n      add\n        /* \"#utility.yul\":8051:8104   */\n      tag_84\n      jump\t// in\n    tag_191:\n        /* \"#utility.yul\":8041:8104   */\n      swap3\n      pop\n        /* \"#utility.yul\":7997:8114   */\n      pop\n        /* \"#utility.yul\":8153:8155   */\n      0x20\n        /* \"#utility.yul\":8179:8232   */\n      tag_192\n        /* \"#utility.yul\":8224:8231   */\n      dup6\n        /* \"#utility.yul\":8215:8221   */\n      dup3\n        /* \"#utility.yul\":8204:8213   */\n      dup7\n        /* \"#utility.yul\":8200:8222   */\n      add\n        /* \"#utility.yul\":8179:8232   */\n      tag_59\n      jump\t// in\n    tag_192:\n        /* \"#utility.yul\":8169:8232   */\n      swap2\n      pop\n        /* \"#utility.yul\":8124:8242   */\n      pop\n        /* \"#utility.yul\":7775:8249   */\n      swap3\n      pop\n      swap3\n      swap1\n      pop\n      jump\t// out\n        /* \"#utility.yul\":8255:8354   */\n    tag_85:\n        /* \"#utility.yul\":8307:8313   */\n      0x00\n        /* \"#utility.yul\":8341:8346   */\n      dup2\n        /* \"#utility.yul\":8335:8347   */\n      mload\n        /* \"#utility.yul\":8325:8347   */\n      swap1\n      pop\n        /* \"#utility.yul\":8255:8354   */\n      swap2\n      swap1\n      pop\n      jump\t// out\n        /* \"#utility.yul\":8360:8529   */\n    tag_86:\n        /* \"#utility.yul\":8444:8455   */\n      0x00\n        /* \"#utility.yul\":8478:8484   */\n      dup3\n        /* \"#utility.yul\":8473:8476   */\n      dup3\n        /* \"#utility.yul\":8466:8485   */\n      mstore\n        /* \"#utility.yul\":8518:8522   */\n      0x20\n        /* \"#utility.yul\":8513:8516   */\n      dup3\n        /* \"#utility.yul\":8509:8523   */\n      add\n        /* \"#utility.yul\":8494:8523   */\n      swap1\n      pop\n        /* \"#utility.yul\":8360:8529   */\n      swap3\n      swap2\n      pop\n      pop\n      jump\t// out\n        /* \"#utility.yul\":8535:8912   */\n    tag_87:\n        /* \"#utility.yul\":8623:8626   */\n      0x00\n        /* \"#utility.yul\":8651:8690   */\n      tag_196\n        /* \"#utility.yul\":8684:8689   */\n      dup3\n        /* \"#utility.yul\":8651:8690   */\n      tag_85\n      jump\t// in\n    tag_196:\n        /* \"#utility.yul\":8706:8777   */\n      tag_197\n        /* \"#utility.yul\":8770:8776   */\n      dup2\n        /* \"#utility.yul\":8765:8768   */\n      dup6\n        /* \"#utility.yul\":8706:8777   */\n      tag_86\n      jump\t// in\n    tag_197:\n        /* \"#utility.yul\":8699:8777   */\n      swap4\n      pop\n        /* \"#utility.yul\":8786:8851   */\n      tag_198\n        /* \"#utility.yul\":8844:8850   */\n      dup2\n        /* \"#utility.yul\":8839:8842   */\n      dup6\n        /* \"#utility.yul\":8832:8836   */\n      0x20\n        /* \"#utility.yul\":8825:8830   */\n      dup7\n        /* \"#utility.yul\":8821:8837   */\n      add\n        /* \"#utility.yul\":8786:8851   */\n      tag_72\n      jump\t// in\n    tag_198:\n        /* \"#utility.yul\":8876:8905   */\n      tag_199\n        /* \"#utility.yul\":8898:8904   */\n      dup2\n        /* \"#utility.yul\":8876:8905   */\n      tag_62\n      jump\t// in\n    tag_199:\n        /* \"#utility.yul\":8871:8874   */\n      dup5\n        /* \"#utility.yul\":8867:8906   */\n      add\n        /* \"#utility.yul\":8860:8906   */\n      swap2\n      pop\n        /* \"#utility.yul\":8627:8912   */\n      pop\n        /* \"#utility.yul\":8535:8912   */\n      swap3\n      swap2\n      pop\n      pop\n      jump\t// out\n        /* \"#utility.yul\":8918:9341   */\n    tag_39:\n        /* \"#utility.yul\":9059:9063   */\n      0x00\n        /* \"#utility.yul\":9097:9099   */\n      0x40\n        /* \"#utility.yul\":9086:9095   */\n      dup3\n        /* \"#utility.yul\":9082:9100   */\n      add\n        /* \"#utility.yul\":9074:9100   */\n      swap1\n      pop\n        /* \"#utility.yul\":9110:9181   */\n      tag_201\n        /* \"#utility.yul\":9178:9179   */\n      0x00\n        /* \"#utility.yul\":9167:9176   */\n      dup4\n        /* \"#utility.yul\":9163:9180   */\n      add\n        /* \"#utility.yul\":9154:9160   */\n      dup6\n        /* \"#utility.yul\":9110:9181   */\n      tag_82\n      jump\t// in\n    tag_201:\n        /* \"#utility.yul\":9228:9237   */\n      dup2\n        /* \"#utility.yul\":9222:9226   */\n      dup2\n        /* \"#utility.yul\":9218:9238   */\n      sub\n        /* \"#utility.yul\":9213:9215   */\n      0x20\n        /* \"#utility.yul\":9202:9211   */\n      dup4\n        /* \"#utility.yul\":9198:9216   */\n      add\n        /* \"#utility.yul\":9191:9239   */\n      mstore\n        /* \"#utility.yul\":9256:9334   */\n      tag_202\n        /* \"#utility.yul\":9329:9333   */\n      dup2\n        /* \"#utility.yul\":9320:9326   */\n      dup5\n        /* \"#utility.yul\":9256:9334   */\n      tag_87\n      jump\t// in\n    tag_202:\n        /* \"#utility.yul\":9248:9334   */\n      swap1\n      pop\n        /* \"#utility.yul\":8918:9341   */\n      swap4\n      swap3\n      pop\n      pop\n      pop\n      jump\t// out\n        /* \"#utility.yul\":9347:9490   */\n    tag_88:\n        /* \"#utility.yul\":9404:9409   */\n      0x00\n        /* \"#utility.yul\":9435:9441   */\n      dup2\n        /* \"#utility.yul\":9429:9442   */\n      mload\n        /* \"#utility.yul\":9420:9442   */\n      swap1\n      pop\n        /* \"#utility.yul\":9451:9484   */\n      tag_204\n        /* \"#utility.yul\":9478:9483   */\n      dup2\n        /* \"#utility.yul\":9451:9484   */\n      tag_58\n      jump\t// in\n    tag_204:\n        /* \"#utility.yul\":9347:9490   */\n      swap3\n      swap2\n      pop\n      pop\n      jump\t// out\n        /* \"#utility.yul\":9496:9930   */\n    tag_89:\n        /* \"#utility.yul\":9585:9590   */\n      0x00\n        /* \"#utility.yul\":9610:9676   */\n      tag_206\n        /* \"#utility.yul\":9626:9675   */\n      tag_207\n        /* \"#utility.yul\":9668:9674   */\n      dup5\n        /* \"#utility.yul\":9626:9675   */\n      tag_66\n      jump\t// in\n    tag_207:\n        /* \"#utility.yul\":9610:9676   */\n      tag_65\n      jump\t// in\n    tag_206:\n        /* \"#utility.yul\":9601:9676   */\n      swap1\n      pop\n        /* \"#utility.yul\":9699:9705   */\n      dup3\n        /* \"#utility.yul\":9692:9697   */\n      dup2\n        /* \"#utility.yul\":9685:9706   */\n      mstore\n        /* \"#utility.yul\":9737:9741   */\n      0x20\n        /* \"#utility.yul\":9730:9735   */\n      dup2\n        /* \"#utility.yul\":9726:9742   */\n      add\n        /* \"#utility.yul\":9775:9778   */\n      dup5\n        /* \"#utility.yul\":9766:9772   */\n      dup5\n        /* \"#utility.yul\":9761:9764   */\n      dup5\n        /* \"#utility.yul\":9757:9773   */\n      add\n        /* \"#utility.yul\":9754:9779   */\n      gt\n        /* \"#utility.yul\":9751:9863   */\n      iszero\n      tag_208\n      jumpi\n        /* \"#utility.yul\":9782:9861   */\n      tag_209\n      tag_61\n      jump\t// in\n    tag_209:\n        /* \"#utility.yul\":9751:9863   */\n    tag_208:\n        /* \"#utility.yul\":9872:9924   */\n      tag_210\n        /* \"#utility.yul\":9917:9923   */\n      dup5\n        /* \"#utility.yul\":9912:9915   */\n      dup3\n        /* \"#utility.yul\":9907:9910   */\n      dup6\n        /* \"#utility.yul\":9872:9924   */\n      tag_72\n      jump\t// in\n    tag_210:\n        /* \"#utility.yul\":9591:9930   */\n      pop\n        /* \"#utility.yul\":9496:9930   */\n      swap4\n      swap3\n      pop\n      pop\n      pop\n      jump\t// out\n        /* \"#utility.yul\":9950:10305   */\n    tag_90:\n        /* \"#utility.yul\":10017:10022   */\n      0x00\n        /* \"#utility.yul\":10066:10069   */\n      dup3\n        /* \"#utility.yul\":10059:10063   */\n      0x1f\n        /* \"#utility.yul\":10051:10057   */\n      dup4\n        /* \"#utility.yul\":10047:10064   */\n      add\n        /* \"#utility.yul\":10043:10070   */\n      slt\n        /* \"#utility.yul\":10033:10155   */\n      tag_212\n      jumpi\n        /* \"#utility.yul\":10074:10153   */\n      tag_213\n      tag_60\n      jump\t// in\n    tag_213:\n        /* \"#utility.yul\":10033:10155   */\n    tag_212:\n        /* \"#utility.yul\":10184:10190   */\n      dup2\n        /* \"#utility.yul\":10178:10191   */\n      mload\n        /* \"#utility.yul\":10209:10299   */\n      tag_214\n        /* \"#utility.yul\":10295:10298   */\n      dup5\n        /* \"#utility.yul\":10287:10293   */\n      dup3\n        /* \"#utility.yul\":10280:10284   */\n      0x20\n        /* \"#utility.yul\":10272:10278   */\n      dup7\n        /* \"#utility.yul\":10268:10285   */\n      add\n        /* \"#utility.yul\":10209:10299   */\n      tag_89\n      jump\t// in\n    tag_214:\n        /* \"#utility.yul\":10200:10299   */\n      swap2\n      pop\n        /* \"#utility.yul\":10023:10305   */\n      pop\n        /* \"#utility.yul\":9950:10305   */\n      swap3\n      swap2\n      pop\n      pop\n      jump\t// out\n        /* \"#utility.yul\":10311:10991   */\n    tag_42:\n        /* \"#utility.yul\":10400:10406   */\n      0x00\n        /* \"#utility.yul\":10408:10414   */\n      dup1\n        /* \"#utility.yul\":10457:10459   */\n      0x40\n        /* \"#utility.yul\":10445:10454   */\n      dup4\n        /* \"#utility.yul\":10436:10443   */\n      dup6\n        /* \"#utility.yul\":10432:10455   */\n      sub\n        /* \"#utility.yul\":10428:10460   */\n      slt\n        /* \"#utility.yul\":10425:10544   */\n      iszero\n      tag_216\n      jumpi\n        /* \"#utility.yul\":10463:10542   */\n      tag_217\n      tag_55\n      jump\t// in\n    tag_217:\n        /* \"#utility.yul\":10425:10544   */\n    tag_216:\n        /* \"#utility.yul\":10583:10584   */\n      0x00\n        /* \"#utility.yul\":10608:10672   */\n      tag_218\n        /* \"#utility.yul\":10664:10671   */\n      dup6\n        /* \"#utility.yul\":10655:10661   */\n      dup3\n        /* \"#utility.yul\":10644:10653   */\n      dup7\n        /* \"#utility.yul\":10640:10662   */\n      add\n        /* \"#utility.yul\":10608:10672   */\n      tag_88\n      jump\t// in\n    tag_218:\n        /* \"#utility.yul\":10598:10672   */\n      swap3\n      pop\n        /* \"#utility.yul\":10554:10682   */\n      pop\n        /* \"#utility.yul\":10742:10744   */\n      0x20\n        /* \"#utility.yul\":10731:10740   */\n      dup4\n        /* \"#utility.yul\":10727:10745   */\n      add\n        /* \"#utility.yul\":10721:10746   */\n      mload\n        /* \"#utility.yul\":10773:10791   */\n      0xffffffffffffffff\n        /* \"#utility.yul\":10765:10771   */\n      dup2\n        /* \"#utility.yul\":10762:10792   */\n      gt\n        /* \"#utility.yul\":10759:10876   */\n      iszero\n      tag_219\n      jumpi\n        /* \"#utility.yul\":10795:10874   */\n      tag_220\n      tag_56\n      jump\t// in\n    tag_220:\n        /* \"#utility.yul\":10759:10876   */\n    tag_219:\n        /* \"#utility.yul\":10900:10974   */\n      tag_221\n        /* \"#utility.yul\":10966:10973   */\n      dup6\n        /* \"#utility.yul\":10957:10963   */\n      dup3\n        /* \"#utility.yul\":10946:10955   */\n      dup7\n        /* \"#utility.yul\":10942:10964   */\n      add\n        /* \"#utility.yul\":10900:10974   */\n      tag_90\n      jump\t// in\n    tag_221:\n        /* \"#utility.yul\":10890:10974   */\n      swap2\n      pop\n        /* \"#utility.yul\":10692:10984   */\n      pop\n        /* \"#utility.yul\":10311:10991   */\n      swap3\n      pop\n      swap3\n      swap1\n      pop\n      jump\t// out\n        /* \"#utility.yul\":10997:11117   */\n    tag_91:\n        /* \"#utility.yul\":11069:11092   */\n      tag_223\n        /* \"#utility.yul\":11086:11091   */\n      dup2\n        /* \"#utility.yul\":11069:11092   */\n      tag_77\n      jump\t// in\n    tag_223:\n        /* \"#utility.yul\":11062:11067   */\n      dup2\n        /* \"#utility.yul\":11059:11093   */\n      eq\n        /* \"#utility.yul\":11049:11111   */\n      tag_224\n      jumpi\n        /* \"#utility.yul\":11107:11108   */\n      0x00\n        /* \"#utility.yul\":11104:11105   */\n      dup1\n        /* \"#utility.yul\":11097:11109   */\n      revert\n        /* \"#utility.yul\":11049:11111   */\n    tag_224:\n        /* \"#utility.yul\":10997:11117   */\n      pop\n      jump\t// out\n        /* \"#utility.yul\":11123:11264   */\n    tag_92:\n        /* \"#utility.yul\":11179:11184   */\n      0x00\n        /* \"#utility.yul\":11210:11216   */\n      dup2\n        /* \"#utility.yul\":11204:11217   */\n      mload\n        /* \"#utility.yul\":11195:11217   */\n      swap1\n      pop\n        /* \"#utility.yul\":11226:11258   */\n      tag_226\n        /* \"#utility.yul\":11252:11257   */\n      dup2\n        /* \"#utility.yul\":11226:11258   */\n      tag_91\n      jump\t// in\n    tag_226:\n        /* \"#utility.yul\":11123:11264   */\n      swap3\n      swap2\n      pop\n      pop\n      jump\t// out\n        /* \"#utility.yul\":11270:11374   */\n    tag_93:\n        /* \"#utility.yul\":11315:11322   */\n      0x00\n        /* \"#utility.yul\":11344:11368   */\n      tag_228\n        /* \"#utility.yul\":11362:11367   */\n      dup3\n        /* \"#utility.yul\":11344:11368   */\n      tag_79\n      jump\t// in\n    tag_228:\n        /* \"#utility.yul\":11333:11368   */\n      swap1\n      pop\n        /* \"#utility.yul\":11270:11374   */\n      swap2\n      swap1\n      pop\n      jump\t// out\n        /* \"#utility.yul\":11380:11518   */\n    tag_94:\n        /* \"#utility.yul\":11461:11493   */\n      tag_230\n        /* \"#utility.yul\":11487:11492   */\n      dup2\n        /* \"#utility.yul\":11461:11493   */\n      tag_93\n      jump\t// in\n    tag_230:\n        /* \"#utility.yul\":11454:11459   */\n      dup2\n        /* \"#utility.yul\":11451:11494   */\n      eq\n        /* \"#utility.yul\":11441:11512   */\n      tag_231\n      jumpi\n        /* \"#utility.yul\":11508:11509   */\n      0x00\n        /* \"#utility.yul\":11505:11506   */\n      dup1\n        /* \"#utility.yul\":11498:11510   */\n      revert\n        /* \"#utility.yul\":11441:11512   */\n    tag_231:\n        /* \"#utility.yul\":11380:11518   */\n      pop\n      jump\t// out\n        /* \"#utility.yul\":11524:11683   */\n    tag_95:\n        /* \"#utility.yul\":11589:11594   */\n      0x00\n        /* \"#utility.yul\":11620:11626   */\n      dup2\n        /* \"#utility.yul\":11614:11627   */\n      mload\n        /* \"#utility.yul\":11605:11627   */\n      swap1\n      pop\n        /* \"#utility.yul\":11636:11677   */\n      tag_233\n        /* \"#utility.yul\":11671:11676   */\n      dup2\n        /* \"#utility.yul\":11636:11677   */\n      tag_94\n      jump\t// in\n    tag_233:\n        /* \"#utility.yul\":11524:11683   */\n      swap3\n      swap2\n      pop\n      pop\n      jump\t// out\n        /* \"#utility.yul\":11689:12366   */\n    tag_46:\n        /* \"#utility.yul\":11784:11790   */\n      0x00\n        /* \"#utility.yul\":11792:11798   */\n      dup1\n        /* \"#utility.yul\":11800:11806   */\n      0x00\n        /* \"#utility.yul\":11849:11851   */\n      0x60\n        /* \"#utility.yul\":11837:11846   */\n      dup5\n        /* \"#utility.yul\":11828:11835   */\n      dup7\n        /* \"#utility.yul\":11824:11847   */\n      sub\n        /* \"#utility.yul\":11820:11852   */\n      slt\n        /* \"#utility.yul\":11817:11936   */\n      iszero\n      tag_235\n      jumpi\n        /* \"#utility.yul\":11855:11934   */\n      tag_236\n      tag_55\n      jump\t// in\n    tag_236:\n        /* \"#utility.yul\":11817:11936   */\n    tag_235:\n        /* \"#utility.yul\":11975:11976   */\n      0x00\n        /* \"#utility.yul\":12000:12063   */\n      tag_237\n        /* \"#utility.yul\":12055:12062   */\n      dup7\n        /* \"#utility.yul\":12046:12052   */\n      dup3\n        /* \"#utility.yul\":12035:12044   */\n      dup8\n        /* \"#utility.yul\":12031:12053   */\n      add\n        /* \"#utility.yul\":12000:12063   */\n      tag_92\n      jump\t// in\n    tag_237:\n        /* \"#utility.yul\":11990:12063   */\n      swap4\n      pop\n        /* \"#utility.yul\":11946:12073   */\n      pop\n        /* \"#utility.yul\":12112:12114   */\n      0x20\n        /* \"#utility.yul\":12138:12210   */\n      tag_238\n        /* \"#utility.yul\":12202:12209   */\n      dup7\n        /* \"#utility.yul\":12193:12199   */\n      dup3\n        /* \"#utility.yul\":12182:12191   */\n      dup8\n        /* \"#utility.yul\":12178:12200   */\n      add\n        /* \"#utility.yul\":12138:12210   */\n      tag_95\n      jump\t// in\n    tag_238:\n        /* \"#utility.yul\":12128:12210   */\n      swap3\n      pop\n        /* \"#utility.yul\":12083:12220   */\n      pop\n        /* \"#utility.yul\":12259:12261   */\n      0x40\n        /* \"#utility.yul\":12285:12349   */\n      tag_239\n        /* \"#utility.yul\":12341:12348   */\n      dup7\n        /* \"#utility.yul\":12332:12338   */\n      dup3\n        /* \"#utility.yul\":12321:12330   */\n      dup8\n        /* \"#utility.yul\":12317:12339   */\n      add\n        /* \"#utility.yul\":12285:12349   */\n      tag_88\n      jump\t// in\n    tag_239:\n        /* \"#utility.yul\":12275:12349   */\n      swap2\n      pop\n        /* \"#utility.yul\":12230:12359   */\n      pop\n        /* \"#utility.yul\":11689:12366   */\n      swap3\n      pop\n      swap3\n      pop\n      swap3\n      jump\t// out\n        /* \"#utility.yul\":12372:12704   */\n    tag_49:\n        /* \"#utility.yul\":12493:12497   */\n      0x00\n        /* \"#utility.yul\":12531:12533   */\n      0x40\n        /* \"#utility.yul\":12520:12529   */\n      dup3\n        /* \"#utility.yul\":12516:12534   */\n      add\n        /* \"#utility.yul\":12508:12534   */\n      swap1\n      pop\n        /* \"#utility.yul\":12544:12615   */\n      tag_241\n        /* \"#utility.yul\":12612:12613   */\n      0x00\n        /* \"#utility.yul\":12601:12610   */\n      dup4\n        /* \"#utility.yul\":12597:12614   */\n      add\n        /* \"#utility.yul\":12588:12594   */\n      dup6\n        /* \"#utility.yul\":12544:12615   */\n      tag_81\n      jump\t// in\n    tag_241:\n        /* \"#utility.yul\":12625:12697   */\n      tag_242\n        /* \"#utility.yul\":12693:12695   */\n      0x20\n        /* \"#utility.yul\":12682:12691   */\n      dup4\n        /* \"#utility.yul\":12678:12696   */\n      add\n        /* \"#utility.yul\":12669:12675   */\n      dup5\n        /* \"#utility.yul\":12625:12697   */\n      tag_82\n      jump\t// in\n    tag_242:\n        /* \"#utility.yul\":12372:12704   */\n      swap4\n      swap3\n      pop\n      pop\n      pop\n      jump\t// out\n\n    auxdata: 0xa2646970667358221220678b524ad0a16fc97a1750f022aa824ac89e0c197d02c6344b2208f41f9500c364736f6c634300081a0033\n}\n",
				"bytecode": {
					"linkReferences": {},
					"object": "6080604052348015600e575f80fd5b50610a4c8061001c5f395ff3fe608060405234801561000f575f80fd5b5060043610610060575f3560e01c806342a6e67214610064578063447a06f5146100945780634e3555c5146100b05780635fc6ac0e146100e25780637e3b06fb146101125780639076943714610142575b5f80fd5b61007e600480360381019061007991906104fa565b610174565b60405161008b91906105b4565b60405180910390f35b6100ae60048036038101906100a99190610672565b6101a0565b005b6100ca60048036038101906100c59190610672565b6101f8565b6040516100d993929190610741565b60405180910390f35b6100fc60048036038101906100f791906107a0565b61021c565b60405161010991906105b4565b60405180910390f35b61012c600480360381019061012791906107a0565b6102bc565b60405161013991906105b4565b60405180910390f35b61015c60048036038101906101579190610672565b610356565b60405161016b93929190610741565b60405180910390f35b60608282604051602001610189929190610830565b604051602081830303815290604052905092915050565b5f80828060200190518101906101b691906108e0565b915091507f7204de88a2292acf0e5b9281c9158c692fca6aa0de2d0e1601eada4b48f95ddd82826040516101eb929190610830565b60405180910390a1505050565b5f805f8380602001905181019061020f919061099f565b9250925092509193909250565b60605f7fa9059cbb2ab09eb219583f4a59a5d0623ade346d962bcd4e46b11da047c9049b90508084846040516024016102569291906109ef565b604051602081830303815290604052907bffffffffffffffffffffffffffffffffffffffffffffffffffffffff19166020820180517bffffffffffffffffffffffffffffffffffffffffffffffffffffffff838183161783525050505091505092915050565b606082826040516024016102d19291906109ef565b6040516020818303038152906040527fa9059cbb000000000000000000000000000000000000000000000000000000007bffffffffffffffffffffffffffffffffffffffffffffffffffffffff19166020820180517bffffffffffffffffffffffffffffffffffffffffffffffffffffffff8381831617835250505050905092915050565b5f805f8380602001905181019061036d919061099f565b9250925092509193909250565b5f604051905090565b5f80fd5b5f80fd5b5f819050919050565b61039d8161038b565b81146103a7575f80fd5b50565b5f813590506103b881610394565b92915050565b5f80fd5b5f80fd5b5f601f19601f8301169050919050565b7f4e487b71000000000000000000000000000000000000000000000000000000005f52604160045260245ffd5b61040c826103c6565b810181811067ffffffffffffffff8211171561042b5761042a6103d6565b5b80604052505050565b5f61043d61037a565b90506104498282610403565b919050565b5f67ffffffffffffffff821115610468576104676103d6565b5b610471826103c6565b9050602081019050919050565b828183375f83830152505050565b5f61049e6104998461044e565b610434565b9050828152602081018484840111156104ba576104b96103c2565b5b6104c584828561047e565b509392505050565b5f82601f8301126104e1576104e06103be565b5b81356104f184826020860161048c565b91505092915050565b5f80604083850312156105105761050f610383565b5b5f61051d858286016103aa565b925050602083013567ffffffffffffffff81111561053e5761053d610387565b5b61054a858286016104cd565b9150509250929050565b5f81519050919050565b5f82825260208201905092915050565b8281835e5f83830152505050565b5f61058682610554565b610590818561055e565b93506105a081856020860161056e565b6105a9816103c6565b840191505092915050565b5f6020820190508181035f8301526105cc818461057c565b905092915050565b5f67ffffffffffffffff8211156105ee576105ed6103d6565b5b6105f7826103c6565b9050602081019050919050565b5f610616610611846105d4565b610434565b905082815260208101848484011115610632576106316103c2565b5b61063d84828561047e565b509392505050565b5f82601f830112610659576106586103be565b5b8135610669848260208601610604565b91505092915050565b5f6020828403121561068757610686610383565b5b5f82013567ffffffffffffffff8111156106a4576106a3610387565b5b6106b084828501610645565b91505092915050565b5f7fffffffff0000000000000000000000000000000000000000000000000000000082169050919050565b6106ed816106b9565b82525050565b5f73ffffffffffffffffffffffffffffffffffffffff82169050919050565b5f61071c826106f3565b9050919050565b61072c81610712565b82525050565b61073b8161038b565b82525050565b5f6060820190506107545f8301866106e4565b6107616020830185610723565b61076e6040830184610732565b949350505050565b61077f81610712565b8114610789575f80fd5b50565b5f8135905061079a81610776565b92915050565b5f80604083850312156107b6576107b5610383565b5b5f6107c38582860161078c565b92505060206107d4858286016103aa565b9150509250929050565b5f81519050919050565b5f82825260208201905092915050565b5f610802826107de565b61080c81856107e8565b935061081c81856020860161056e565b610825816103c6565b840191505092915050565b5f6040820190506108435f830185610732565b818103602083015261085581846107f8565b90509392505050565b5f8151905061086c81610394565b92915050565b5f61088461087f8461044e565b610434565b9050828152602081018484840111156108a05761089f6103c2565b5b6108ab84828561056e565b509392505050565b5f82601f8301126108c7576108c66103be565b5b81516108d7848260208601610872565b91505092915050565b5f80604083850312156108f6576108f5610383565b5b5f6109038582860161085e565b925050602083015167ffffffffffffffff81111561092457610923610387565b5b610930858286016108b3565b9150509250929050565b610943816106b9565b811461094d575f80fd5b50565b5f8151905061095e8161093a565b92915050565b5f61096e826106f3565b9050919050565b61097e81610964565b8114610988575f80fd5b50565b5f8151905061099981610975565b92915050565b5f805f606084860312156109b6576109b5610383565b5b5f6109c386828701610950565b93505060206109d48682870161098b565b92505060406109e58682870161085e565b9150509250925092565b5f604082019050610a025f830185610723565b610a0f6020830184610732565b939250505056fea2646970667358221220678b524ad0a16fc97a1750f022aa824ac89e0c197d02c6344b2208f41f9500c364736f6c634300081a0033",
					"opcodes": "PUSH1 0x80 PUSH1 0x40 MSTORE CALLVALUE DUP1 ISZERO PUSH1 0xE JUMPI PUSH0 DUP1 REVERT JUMPDEST POP PUSH2 0xA4C DUP1 PUSH2 0x1C PUSH0 CODECOPY PUSH0 RETURN INVALID PUSH1 0x80 PUSH1 0x40 MSTORE CALLVALUE DUP1 ISZERO PUSH2 0xF JUMPI PUSH0 DUP1 REVERT JUMPDEST POP PUSH1 0x4 CALLDATASIZE LT PUSH2 0x60 JUMPI PUSH0 CALLDATALOAD PUSH1 0xE0 SHR DUP1 PUSH4 0x42A6E672 EQ PUSH2 0x64 JUMPI DUP1 PUSH4 0x447A06F5 EQ PUSH2 0x94 JUMPI DUP1 PUSH4 0x4E3555C5 EQ PUSH2 0xB0 JUMPI DUP1 PUSH4 0x5FC6AC0E EQ PUSH2 0xE2 JUMPI DUP1 PUSH4 0x7E3B06FB EQ PUSH2 0x112 JUMPI DUP1 PUSH4 0x90769437 EQ PUSH2 0x142 JUMPI JUMPDEST PUSH0 DUP1 REVERT JUMPDEST PUSH2 0x7E PUSH1 0x4 DUP1 CALLDATASIZE SUB DUP2 ADD SWAP1 PUSH2 0x79 SWAP2 SWAP1 PUSH2 0x4FA JUMP JUMPDEST PUSH2 0x174 JUMP JUMPDEST PUSH1 0x40 MLOAD PUSH2 0x8B SWAP2 SWAP1 PUSH2 0x5B4 JUMP JUMPDEST PUSH1 0x40 MLOAD DUP1 SWAP2 SUB SWAP1 RETURN JUMPDEST PUSH2 0xAE PUSH1 0x4 DUP1 CALLDATASIZE SUB DUP2 ADD SWAP1 PUSH2 0xA9 SWAP2 SWAP1 PUSH2 0x672 JUMP JUMPDEST PUSH2 0x1A0 JUMP JUMPDEST STOP JUMPDEST PUSH2 0xCA PUSH1 0x4 DUP1 CALLDATASIZE SUB DUP2 ADD SWAP1 PUSH2 0xC5 SWAP2 SWAP1 PUSH2 0x672 JUMP JUMPDEST PUSH2 0x1F8 JUMP JUMPDEST PUSH1 0x40 MLOAD PUSH2 0xD9 SWAP4 SWAP3 SWAP2 SWAP1 PUSH2 0x741 JUMP JUMPDEST PUSH1 0x40 MLOAD DUP1 SWAP2 SUB SWAP1 RETURN JUMPDEST PUSH2 0xFC PUSH1 0x4 DUP1 CALLDATASIZE SUB DUP2 ADD SWAP1 PUSH2 0xF7 SWAP2 SWAP1 PUSH2 0x7A0 JUMP JUMPDEST PUSH2 0x21C JUMP JUMPDEST PUSH1 0x40 MLOAD PUSH2 0x109 SWAP2 SWAP1 PUSH2 0x5B4 JUMP JUMPDEST PUSH1 0x40 MLOAD DUP1 SWAP2 SUB SWAP1 RETURN JUMPDEST PUSH2 0x12C PUSH1 0x4 DUP1 CALLDATASIZE SUB DUP2 ADD SWAP1 PUSH2 0x127 SWAP2 SWAP1 PUSH2 0x7A0 JUMP JUMPDEST PUSH2 0x2BC JUMP JUMPDEST PUSH1 0x40 MLOAD PUSH2 0x139 SWAP2 SWAP1 PUSH2 0x5B4 JUMP JUMPDEST PUSH1 0x40 MLOAD DUP1 SWAP2 SUB SWAP1 RETURN JUMPDEST PUSH2 0x15C PUSH1 0x4 DUP1 CALLDATASIZE SUB DUP2 ADD SWAP1 PUSH2 0x157 SWAP2 SWAP1 PUSH2 0x672 JUMP JUMPDEST PUSH2 0x356 JUMP JUMPDEST PUSH1 0x40 MLOAD PUSH2 0x16B SWAP4 SWAP3 SWAP2 SWAP1 PUSH2 0x741 JUMP JUMPDEST PUSH1 0x40 MLOAD DUP1 SWAP2 SUB SWAP1 RETURN JUMPDEST PUSH1 0x60 DUP3 DUP3 PUSH1 0x40 MLOAD PUSH1 0x20 ADD PUSH2 0x189 SWAP3 SWAP2 SWAP1 PUSH2 0x830 JUMP JUMPDEST PUSH1 0x40 MLOAD PUSH1 0x20 DUP2 DUP4 SUB SUB DUP2 MSTORE SWAP1 PUSH1 0x40 MSTORE SWAP1 POP SWAP3 SWAP2 POP POP JUMP JUMPDEST PUSH0 DUP1 DUP3 DUP1 PUSH1 0x20 ADD SWAP1 MLOAD DUP2 ADD SWAP1 PUSH2 0x1B6 SWAP2 SWAP1 PUSH2 0x8E0 JUMP JUMPDEST SWAP2 POP SWAP2 POP PUSH32 0x7204DE88A2292ACF0E5B9281C9158C692FCA6AA0DE2D0E1601EADA4B48F95DDD DUP3 DUP3 PUSH1 0x40 MLOAD PUSH2 0x1EB SWAP3 SWAP2 SWAP1 PUSH2 0x830 JUMP JUMPDEST PUSH1 0x40 MLOAD DUP1 SWAP2 SUB SWAP1 LOG1 POP POP POP JUMP JUMPDEST PUSH0 DUP1 PUSH0 DUP4 DUP1 PUSH1 0x20 ADD SWAP1 MLOAD DUP2 ADD SWAP1 PUSH2 0x20F SWAP2 SWAP1 PUSH2 0x99F JUMP JUMPDEST SWAP3 POP SWAP3 POP SWAP3 POP SWAP2 SWAP4 SWAP1 SWAP3 POP JUMP JUMPDEST PUSH1 0x60 PUSH0 PUSH32 0xA9059CBB2AB09EB219583F4A59A5D0623ADE346D962BCD4E46B11DA047C9049B SWAP1 POP DUP1 DUP5 DUP5 PUSH1 0x40 MLOAD PUSH1 0x24 ADD PUSH2 0x256 SWAP3 SWAP2 SWAP1 PUSH2 0x9EF JUMP JUMPDEST PUSH1 0x40 MLOAD PUSH1 0x20 DUP2 DUP4 SUB SUB DUP2 MSTORE SWAP1 PUSH1 0x40 MSTORE SWAP1 PUSH28 0xFFFFFFFFFFFFFFFFFFFFFFFFFFFFFFFFFFFFFFFFFFFFFFFFFFFFFFFF NOT AND PUSH1 0x20 DUP3 ADD DUP1 MLOAD PUSH28 0xFFFFFFFFFFFFFFFFFFFFFFFFFFFFFFFFFFFFFFFFFFFFFFFFFFFFFFFF DUP4 DUP2 DUP4 AND OR DUP4 MSTORE POP POP POP POP SWAP2 POP POP SWAP3 SWAP2 POP POP JUMP JUMPDEST PUSH1 0x60 DUP3 DUP3 PUSH1 0x40 MLOAD PUSH1 0x24 ADD PUSH2 0x2D1 SWAP3 SWAP2 SWAP1 PUSH2 0x9EF JUMP JUMPDEST PUSH1 0x40 MLOAD PUSH1 0x20 DUP2 DUP4 SUB SUB DUP2 MSTORE SWAP1 PUSH1 0x40 MSTORE PUSH32 0xA9059CBB00000000000000000000000000000000000000000000000000000000 PUSH28 0xFFFFFFFFFFFFFFFFFFFFFFFFFFFFFFFFFFFFFFFFFFFFFFFFFFFFFFFF NOT AND PUSH1 0x20 DUP3 ADD DUP1 MLOAD PUSH28 0xFFFFFFFFFFFFFFFFFFFFFFFFFFFFFFFFFFFFFFFFFFFFFFFFFFFFFFFF DUP4 DUP2 DUP4 AND OR DUP4 MSTORE POP POP POP POP SWAP1 POP SWAP3 SWAP2 POP POP JUMP JUMPDEST PUSH0 DUP1 PUSH0 DUP4 DUP1 PUSH1 0x20 ADD SWAP1 MLOAD DUP2 ADD SWAP1 PUSH2 0x36D SWAP2 SWAP1 PUSH2 0x99F JUMP JUMPDEST SWAP3 POP SWAP3 POP SWAP3 POP SWAP2 SWAP4 SWAP1 SWAP3 POP JUMP JUMPDEST PUSH0 PUSH1 0x40 MLOAD SWAP1 POP SWAP1 JUMP JUMPDEST PUSH0 DUP1 REVERT JUMPDEST PUSH0 DUP1 REVERT JUMPDEST PUSH0 DUP2 SWAP1 POP SWAP2 SWAP1 POP JUMP JUMPDEST PUSH2 0x39D DUP2 PUSH2 0x38B JUMP JUMPDEST DUP2 EQ PUSH2 0x3A7 JUMPI PUSH0 DUP1 REVERT JUMPDEST POP JUMP JUMPDEST PUSH0 DUP2 CALLDATALOAD SWAP1 POP PUSH2 0x3B8 DUP2 PUSH2 0x394 JUMP JUMPDEST SWAP3 SWAP2 POP POP JUMP JUMPDEST PUSH0 DUP1 REVERT JUMPDEST PUSH0 DUP1 REVERT JUMPDEST PUSH0 PUSH1 0x1F NOT PUSH1 0x1F DUP4 ADD AND SWAP1 POP SWAP2 SWAP1 POP JUMP JUMPDEST PUSH32 0x4E487B7100000000000000000000000000000000000000000000000000000000 PUSH0 MSTORE PUSH1 0x41 PUSH1 0x4 MSTORE PUSH1 0x24 PUSH0 REVERT JUMPDEST PUSH2 0x40C DUP3 PUSH2 0x3C6 JUMP JUMPDEST DUP2 ADD DUP2 DUP2 LT PUSH8 0xFFFFFFFFFFFFFFFF DUP3 GT OR ISZERO PUSH2 0x42B JUMPI PUSH2 0x42A PUSH2 0x3D6 JUMP JUMPDEST JUMPDEST DUP1 PUSH1 0x40 MSTORE POP POP POP JUMP JUMPDEST PUSH0 PUSH2 0x43D PUSH2 0x37A JUMP JUMPDEST SWAP1 POP PUSH2 0x449 DUP3 DUP3 PUSH2 0x403 JUMP JUMPDEST SWAP2 SWAP1 POP JUMP JUMPDEST PUSH0 PUSH8 0xFFFFFFFFFFFFFFFF DUP3 GT ISZERO PUSH2 0x468 JUMPI PUSH2 0x467 PUSH2 0x3D6 JUMP JUMPDEST JUMPDEST PUSH2 0x471 DUP3 PUSH2 0x3C6 JUMP JUMPDEST SWAP1 POP PUSH1 0x20 DUP2 ADD SWAP1 POP SWAP2 SWAP1 POP JUMP JUMPDEST DUP3 DUP2 DUP4 CALLDATACOPY PUSH0 DUP4 DUP4 ADD MSTORE POP POP POP JUMP JUMPDEST PUSH0 PUSH2 0x49E PUSH2 0x499 DUP5 PUSH2 0x44E JUMP JUMPDEST PUSH2 0x434 JUMP JUMPDEST SWAP1 POP DUP3 DUP2 MSTORE PUSH1 0x20 DUP2 ADD DUP5 DUP5 DUP5 ADD GT ISZERO PUSH2 0x4BA JUMPI PUSH2 0x4B9 PUSH2 0x3C2 JUMP JUMPDEST JUMPDEST PUSH2 0x4C5 DUP5 DUP3 DUP6 PUSH2 0x47E JUMP JUMPDEST POP SWAP4 SWAP3 POP POP POP JUMP JUMPDEST PUSH0 DUP3 PUSH1 0x1F DUP4 ADD SLT PUSH2 0x4E1 JUMPI PUSH2 0x4E0 PUSH2 0x3BE JUMP JUMPDEST JUMPDEST DUP2 CALLDATALOAD PUSH2 0x4F1 DUP5 DUP3 PUSH1 0x20 DUP7 ADD PUSH2 0x48C JUMP JUMPDEST SWAP2 POP POP SWAP3 SWAP2 POP POP JUMP JUMPDEST PUSH0 DUP1 PUSH1 0x40 DUP4 DUP6 SUB SLT ISZERO PUSH2 0x510 JUMPI PUSH2 0x50F PUSH2 0x383 JUMP JUMPDEST JUMPDEST PUSH0 PUSH2 0x51D DUP6 DUP3 DUP7 ADD PUSH2 0x3AA JUMP JUMPDEST SWAP3 POP POP PUSH1 0x20 DUP4 ADD CALLDATALOAD PUSH8 0xFFFFFFFFFFFFFFFF DUP2 GT ISZERO PUSH2 0x53E JUMPI PUSH2 0x53D PUSH2 0x387 JUMP JUMPDEST JUMPDEST PUSH2 0x54A DUP6 DUP3 DUP7 ADD PUSH2 0x4CD JUMP JUMPDEST SWAP2 POP POP SWAP3 POP SWAP3 SWAP1 POP JUMP JUMPDEST PUSH0 DUP2 MLOAD SWAP1 POP SWAP2 SWAP1 POP JUMP JUMPDEST PUSH0 DUP3 DUP3 MSTORE PUSH1 0x20 DUP3 ADD SWAP1 POP SWAP3 SWAP2 POP POP JUMP JUMPDEST DUP3 DUP2 DUP4 MCOPY PUSH0 DUP4 DUP4 ADD MSTORE POP POP POP JUMP JUMPDEST PUSH0 PUSH2 0x586 DUP3 PUSH2 0x554 JUMP JUMPDEST PUSH2 0x590 DUP2 DUP6 PUSH2 0x55E JUMP JUMPDEST SWAP4 POP PUSH2 0x5A0 DUP2 DUP6 PUSH1 0x20 DUP7 ADD PUSH2 0x56E JUMP JUMPDEST PUSH2 0x5A9 DUP2 PUSH2 0x3C6 JUMP JUMPDEST DUP5 ADD SWAP2 POP POP SWAP3 SWAP2 POP POP JUMP JUMPDEST PUSH0 PUSH1 0x20 DUP3 ADD SWAP1 POP DUP2 DUP2 SUB PUSH0 DUP4 ADD MSTORE PUSH2 0x5CC DUP2 DUP5 PUSH2 0x57C JUMP JUMPDEST SWAP1 POP SWAP3 SWAP2 POP POP JUMP JUMPDEST PUSH0 PUSH8 0xFFFFFFFFFFFFFFFF DUP3 GT ISZERO PUSH2 0x5EE JUMPI PUSH2 0x5ED PUSH2 0x3D6 JUMP JUMPDEST JUMPDEST PUSH2 0x5F7 DUP3 PUSH2 0x3C6 JUMP JUMPDEST SWAP1 POP PUSH1 0x20 DUP2 ADD SWAP1 POP SWAP2 SWAP1 POP JUMP JUMPDEST PUSH0 PUSH2 0x616 PUSH2 0x611 DUP5 PUSH2 0x5D4 JUMP JUMPDEST PUSH2 0x434 JUMP JUMPDEST SWAP1 POP DUP3 DUP2 MSTORE PUSH1 0x20 DUP2 ADD DUP5 DUP5 DUP5 ADD GT ISZERO PUSH2 0x632 JUMPI PUSH2 0x631 PUSH2 0x3C2 JUMP JUMPDEST JUMPDEST PUSH2 0x63D DUP5 DUP3 DUP6 PUSH2 0x47E JUMP JUMPDEST POP SWAP4 SWAP3 POP POP POP JUMP JUMPDEST PUSH0 DUP3 PUSH1 0x1F DUP4 ADD SLT PUSH2 0x659 JUMPI PUSH2 0x658 PUSH2 0x3BE JUMP JUMPDEST JUMPDEST DUP2 CALLDATALOAD PUSH2 0x669 DUP5 DUP3 PUSH1 0x20 DUP7 ADD PUSH2 0x604 JUMP JUMPDEST SWAP2 POP POP SWAP3 SWAP2 POP POP JUMP JUMPDEST PUSH0 PUSH1 0x20 DUP3 DUP5 SUB SLT ISZERO PUSH2 0x687 JUMPI PUSH2 0x686 PUSH2 0x383 JUMP JUMPDEST JUMPDEST PUSH0 DUP3 ADD CALLDATALOAD PUSH8 0xFFFFFFFFFFFFFFFF DUP2 GT ISZERO PUSH2 0x6A4 JUMPI PUSH2 0x6A3 PUSH2 0x387 JUMP JUMPDEST JUMPDEST PUSH2 0x6B0 DUP5 DUP3 DUP6 ADD PUSH2 0x645 JUMP JUMPDEST SWAP2 POP POP SWAP3 SWAP2 POP POP JUMP JUMPDEST PUSH0 PUSH32 0xFFFFFFFF00000000000000000000000000000000000000000000000000000000 DUP3 AND SWAP1 POP SWAP2 SWAP1 POP JUMP JUMPDEST PUSH2 0x6ED DUP2 PUSH2 0x6B9 JUMP JUMPDEST DUP3 MSTORE POP POP JUMP JUMPDEST PUSH0 PUSH20 0xFFFFFFFFFFFFFFFFFFFFFFFFFFFFFFFFFFFFFFFF DUP3 AND SWAP1 POP SWAP2 SWAP1 POP JUMP JUMPDEST PUSH0 PUSH2 0x71C DUP3 PUSH2 0x6F3 JUMP JUMPDEST SWAP1 POP SWAP2 SWAP1 POP JUMP JUMPDEST PUSH2 0x72C DUP2 PUSH2 0x712 JUMP JUMPDEST DUP3 MSTORE POP POP JUMP JUMPDEST PUSH2 0x73B DUP2 PUSH2 0x38B JUMP JUMPDEST DUP3 MSTORE POP POP JUMP JUMPDEST PUSH0 PUSH1 0x60 DUP3 ADD SWAP1 POP PUSH2 0x754 PUSH0 DUP4 ADD DUP7 PUSH2 0x6E4 JUMP JUMPDEST PUSH2 0x761 PUSH1 0x20 DUP4 ADD DUP6 PUSH2 0x723 JUMP JUMPDEST PUSH2 0x76E PUSH1 0x40 DUP4 ADD DUP5 PUSH2 0x732 JUMP JUMPDEST SWAP5 SWAP4 POP POP POP POP JUMP JUMPDEST PUSH2 0x77F DUP2 PUSH2 0x712 JUMP JUMPDEST DUP2 EQ PUSH2 0x789 JUMPI PUSH0 DUP1 REVERT JUMPDEST POP JUMP JUMPDEST PUSH0 DUP2 CALLDATALOAD SWAP1 POP PUSH2 0x79A DUP2 PUSH2 0x776 JUMP JUMPDEST SWAP3 SWAP2 POP POP JUMP JUMPDEST PUSH0 DUP1 PUSH1 0x40 DUP4 DUP6 SUB SLT ISZERO PUSH2 0x7B6 JUMPI PUSH2 0x7B5 PUSH2 0x383 JUMP JUMPDEST JUMPDEST PUSH0 PUSH2 0x7C3 DUP6 DUP3 DUP7 ADD PUSH2 0x78C JUMP JUMPDEST SWAP3 POP POP PUSH1 0x20 PUSH2 0x7D4 DUP6 DUP3 DUP7 ADD PUSH2 0x3AA JUMP JUMPDEST SWAP2 POP POP SWAP3 POP SWAP3 SWAP1 POP JUMP JUMPDEST PUSH0 DUP2 MLOAD SWAP1 POP SWAP2 SWAP1 POP JUMP JUMPDEST PUSH0 DUP3 DUP3 MSTORE PUSH1 0x20 DUP3 ADD SWAP1 POP SWAP3 SWAP2 POP POP JUMP JUMPDEST PUSH0 PUSH2 0x802 DUP3 PUSH2 0x7DE JUMP JUMPDEST PUSH2 0x80C DUP2 DUP6 PUSH2 0x7E8 JUMP JUMPDEST SWAP4 POP PUSH2 0x81C DUP2 DUP6 PUSH1 0x20 DUP7 ADD PUSH2 0x56E JUMP JUMPDEST PUSH2 0x825 DUP2 PUSH2 0x3C6 JUMP JUMPDEST DUP5 ADD SWAP2 POP POP SWAP3 SWAP2 POP POP JUMP JUMPDEST PUSH0 PUSH1 0x40 DUP3 ADD SWAP1 POP PUSH2 0x843 PUSH0 DUP4 ADD DUP6 PUSH2 0x732 JUMP JUMPDEST DUP2 DUP2 SUB PUSH1 0x20 DUP4 ADD MSTORE PUSH2 0x855 DUP2 DUP5 PUSH2 0x7F8 JUMP JUMPDEST SWAP1 POP SWAP4 SWAP3 POP POP POP JUMP JUMPDEST PUSH0 DUP2 MLOAD SWAP1 POP PUSH2 0x86C DUP2 PUSH2 0x394 JUMP JUMPDEST SWAP3 SWAP2 POP POP JUMP JUMPDEST PUSH0 PUSH2 0x884 PUSH2 0x87F DUP5 PUSH2 0x44E JUMP JUMPDEST PUSH2 0x434 JUMP JUMPDEST SWAP1 POP DUP3 DUP2 MSTORE PUSH1 0x20 DUP2 ADD DUP5 DUP5 DUP5 ADD GT ISZERO PUSH2 0x8A0 JUMPI PUSH2 0x89F PUSH2 0x3C2 JUMP JUMPDEST JUMPDEST PUSH2 0x8AB DUP5 DUP3 DUP6 PUSH2 0x56E JUMP JUMPDEST POP SWAP4 SWAP3 POP POP POP JUMP JUMPDEST PUSH0 DUP3 PUSH1 0x1F DUP4 ADD SLT PUSH2 0x8C7 JUMPI PUSH2 0x8C6 PUSH2 0x3BE JUMP JUMPDEST JUMPDEST DUP2 MLOAD PUSH2 0x8D7 DUP5 DUP3 PUSH1 0x20 DUP7 ADD PUSH2 0x872 JUMP JUMPDEST SWAP2 POP POP SWAP3 SWAP2 POP POP JUMP JUMPDEST PUSH0 DUP1 PUSH1 0x40 DUP4 DUP6 SUB SLT ISZERO PUSH2 0x8F6 JUMPI PUSH2 0x8F5 PUSH2 0x383 JUMP JUMPDEST JUMPDEST PUSH0 PUSH2 0x903 DUP6 DUP3 DUP7 ADD PUSH2 0x85E JUMP JUMPDEST SWAP3 POP POP PUSH1 0x20 DUP4 ADD MLOAD PUSH8 0xFFFFFFFFFFFFFFFF DUP2 GT ISZERO PUSH2 0x924 JUMPI PUSH2 0x923 PUSH2 0x387 JUMP JUMPDEST JUMPDEST PUSH2 0x930 DUP6 DUP3 DUP7 ADD PUSH2 0x8B3 JUMP JUMPDEST SWAP2 POP POP SWAP3 POP SWAP3 SWAP1 POP JUMP JUMPDEST PUSH2 0x943 DUP2 PUSH2 0x6B9 JUMP JUMPDEST DUP2 EQ PUSH2 0x94D JUMPI PUSH0 DUP1 REVERT JUMPDEST POP JUMP JUMPDEST PUSH0 DUP2 MLOAD SWAP1 POP PUSH2 0x95E DUP2 PUSH2 0x93A JUMP JUMPDEST SWAP3 SWAP2 POP POP JUMP JUMPDEST PUSH0 PUSH2 0x96E DUP3 PUSH2 0x6F3 JUMP JUMPDEST SWAP1 POP SWAP2 SWAP1 POP JUMP JUMPDEST PUSH2 0x97E DUP2 PUSH2 0x964 JUMP JUMPDEST DUP2 EQ PUSH2 0x988 JUMPI PUSH0 DUP1 REVERT JUMPDEST POP JUMP JUMPDEST PUSH0 DUP2 MLOAD SWAP1 POP PUSH2 0x999 DUP2 PUSH2 0x975 JUMP JUMPDEST SWAP3 SWAP2 POP POP JUMP JUMPDEST PUSH0 DUP1 PUSH0 PUSH1 0x60 DUP5 DUP7 SUB SLT ISZERO PUSH2 0x9B6 JUMPI PUSH2 0x9B5 PUSH2 0x383 JUMP JUMPDEST JUMPDEST PUSH0 PUSH2 0x9C3 DUP7 DUP3 DUP8 ADD PUSH2 0x950 JUMP JUMPDEST SWAP4 POP POP PUSH1 0x20 PUSH2 0x9D4 DUP7 DUP3 DUP8 ADD PUSH2 0x98B JUMP JUMPDEST SWAP3 POP POP PUSH1 0x40 PUSH2 0x9E5 DUP7 DUP3 DUP8 ADD PUSH2 0x85E JUMP JUMPDEST SWAP2 POP POP SWAP3 POP SWAP3 POP SWAP3 JUMP JUMPDEST PUSH0 PUSH1 0x40 DUP3 ADD SWAP1 POP PUSH2 0xA02 PUSH0 DUP4 ADD DUP6 PUSH2 0x723 JUMP JUMPDEST PUSH2 0xA0F PUSH1 0x20 DUP4 ADD DUP5 PUSH2 0x732 JUMP JUMPDEST SWAP4 SWAP3 POP POP POP JUMP INVALID LOG2 PUSH5 0x6970667358 0x22 SLT KECCAK256 PUSH8 0x8B524AD0A16FC97A OR POP CREATE 0x22 0xAA DUP3 BLOBBASEFEE 0xC8 SWAP15 0xC NOT PUSH30 0x2C6344B2208F41F9500C364736F6C634300081A00330000000000000000 "
				},
				"gasEstimates": {
					"creation": {
						"codeDepositCost": "527200",
						"executionCost": "560",
						"totalCost": "527760"
					},
					"external": {
						"decodeData(bytes)": "infinite",
						"decodeWithSelector(bytes)": "infinite",
						"decodeWithSignature(bytes)": "infinite",
						"encodeData(uint256,string)": "infinite",
						"encodeWithSelector(address,uint256)": "infinite",
						"encodeWithSignature(address,uint256)": "infinite"
					}
				},
				"methodIdentifiers": {
					"decodeData(bytes)": "447a06f5",
					"decodeWithSelector(bytes)": "90769437",
					"decodeWithSignature(bytes)": "4e3555c5",
					"encodeData(uint256,string)": "42a6e672",
					"encodeWithSelector(address,uint256)": "5fc6ac0e",
					"encodeWithSignature(address,uint256)": "7e3b06fb"
				}
			},
			"storageLayout": {
				"storage": [],
				"types": null
			},
			"userdoc": {
				"kind": "user",
				"methods": {},
				"version": 1
			}
		}
	}
}